:020000040800F2
:10000000002800200D1800089D170008A3170008FD
:10001000A9170008AF170008B51700080000000076
:10002000000000000000000000000000BB170008F6
:10003000C717000800000000D3170008DF170008EA
:1000400055180008551800085518000855180008DC
:1000500055180008551800085518000855180008CC
:1000600055180008551800085518000855180008BC
:1000700055180008551800085518000855180008AC
:10008000551800085518000855180008551800089C
:10009000551800085518000855180008551800088C
:1000A000551800085518000855180008551800087C
:1000B000ED1700085518000800000000551800084A
:1000C0005518000800000000000000005518000846
:1000D0000000000055180008551800080000000036
:1000E00055180008551800085518000800000000B1
:1000F0000000000000000000000000000000000000
:0C01000000000000000000005FF808F1A3
:10010C0010B5054C237833B9044B13B10448AFF345
:10011C0000800123237010BD1C0000200000000093
:10012C00842E000808B5034B1BB103490348AFF3F9
:10013C00008008BD0000000020000020842E000874
:10014C0080B485B000AFF8600B467A607B81FB68A9
:10015C007A891A80FB687A685A60FB6800221A72E6
:10016C00FB6800221A82FB6800225A82FB6800227C
:10017C009A73FB680022DA73FB6800221A73FB681F
:10018C0000225A7300BF1437BD4680BC7047000074
:10019C0080B582B000AF00237B60EDE07B497A68CC
:1001AC0013469B0013449B000B440A331878774981
:1001BC007A6813469B0013449B000B440B33024696
:1001CC001A7072497A6813469B0013449B000B44C7
:1001DC00093318786D497A6813469B0013449B00C9
:1001EC000B440A3302461A7068497A6813469B001E
:1001FC0013449B000B440433186864497A68134613
:10020C009B0013449B000B441B88194601F008FE0D
:10021C00034618465D497A6813469B0013449B00BD
:10022C000B44093302461A7058497A6813469B00EE
:10023C0013449B000B440B33197854487A681346CB
:10024C009B0013449B00034409331B7899423BD118
:10025C004E497A6813469B0013449B000B440833A9
:10026C0019784A487A6813469B0013449B00034450
:10027C0009331B78994227D044497A6813469B006E
:10028C0013449B000B4409331B78002B09D13F49C5
:10029C007A6813469B0013449B000B440F330122D6
:1002AC001A703A497A6813469B0013449B000B441E
:1002BC000933187835497A6813469B0013449B0020
:1002CC000B44083302461A7030497A6813469B0077
:1002DC0013449B000B4408331B78002B35D12B495E
:1002EC007A6813469B0013449B000B4410331B8805
:1002FC00632B15D825497A6813469B0013449B0041
:10030C000B4410331B88013398B220497A6813468A
:10031C009B0013449B000B44103302461A8028E0C8
:10032C001A497A6813469B0013449B000B440C3308
:10033C0001221A7015497A6813469B0013449B00DE
:10034C000B44103300221A8013E010497A681346CC
:10035C009B0013449B000B44103300221A800B4962
:10036C007A6813469B0013449B000B440C33002209
:10037C001A707B6801337B607B68022B7FF70EAFB2
:10038C0000BF00BF0837BD4680BD00BF6C00002019
:10039C0080B483B000AF78607B68DB7B002B04D02B
:1003AC007B680022DA73012300E0002318460C3727
:1003BC00BD4680BC704780B483B000AF78607B686A
:1003CC001B7B012B04D17B6800221A73012300E0F4
:1003DC00002318460C37BD4680BC704780B582B0F0
:1003EC0002AF0B4B1B78032B0FD10A4B012201924E
:1003FC001A6900920FCB00F09EFD074B012201926F
:10040C001A6900920FCB00F096FD00BFBD4680BD6F
:10041C0038000020580000204400002080B584B033
:10042C0002AF5D4B1B78032B40F0B1805B48FFF7AC
:10043C00AFFF0346002B63D0594B00221A60594B77
:10044C001A78594B1B789A4203D0564B1A78564B54
:10045C001A70544B1A78554B1B781344FB71544B40
:10046C001B78FA799A4211D0524B05221A70524BD2
:10047C0002221A704C4B03221A704D4B05221A7033
:10048C004A4B02221A70474B03221A70484B1A78B7
:10049C004A4B1A70454B1A78494B1A70414B1A78D3
:1004AC00484B1A70424B1A78474B1A703F4B1A78CC
:1004BC00464B1A703B4B1A78454B1A703F4B1B78C6
:1004CC00434A12781146184600F04AFB414B002271
:1004DC0001921A6900920FCB00F0E2FC3E4B012214
:1004EC0001921A6900920FCB00F0DAFC3B4B002210
:1004FC001A703B4B01221A70274B00221A7046E0EF
:10050C003848FFF758FF0346002B18D0264B1B78B2
:10051C000133DAB2244B1A70234B1B78632B02D9AC
:10052C00214B01221A701C4B1B781F4A1278114662
:10053C00184600F015FB1A4B00221A601DE02948E2
:10054C00FFF726FF0346002B17D0174B1B78013300
:10055C00DAB2154B1A70144B1B78632B02D9124B61
:10056C0001221A700C4B1B780F4A12781146184650
:10057C0000F0F6FA0A4B00221A601B48FFF708FF3E
:10058C000346002B03D0084B1A78064B1A7000BF99
:10059C000837BD4680BD00BF380000206C0000202D
:1005AC003C00002006000020030000200500002075
:1005BC0004000020010000200200002007000020A1
:1005CC0008000020090000200A0000200B00002079
:1005DC000C000020580000204400002039000020AE
:1005EC0000000020800000209400002080B582B024
:1005FC0002AF0B4B1B78012B0FD10A4B002201923F
:10060C001A6900920FCB00F096FC074B0022019266
:10061C001A6900920FCB00F08EFC00BFBD4680BD66
:10062C0038000020580000204400002080B500AFA6
:10063C00354B1B78012B65D13448FFF7A9FE0346D7
:10064C00002B18D0324B1A78324B1B789A4203D0BD
:10065C002F4B1A782F4B1A702F4B00221A602A4BF3
:10066C0002221A70284B1B782C4A12781146184615
:10067C0000F076FA46E02A48FFF79DFE0346002B71
:10068C0018D0244B1B780133DAB2224B1A70214B51
:10069C001B78632B02D91F4B01221A701A4B1B7843
:1006AC001C4A12781146184600F05AFA1A4B0022CE
:1006BC001A601DE01A48FFF76BFE0346002B17D09B
:1006CC00144B1B780133DAB2124B1A70114B1B7896
:1006DC00632B02D90F4B01221A700B4B1B780D4A5E
:1006EC0012781146184600F03BFA0B4B00221A60A8
:1006FC000C48FFF74DFE0346002B03D0054B1A7830
:10070C00034B1A7000BF80BD380000206C00002025
:10071C0004000020010000203C000020020000200A
:10072C00800000209400002080B582B002AF0B4BFB
:10073C001B78022B0FD10A4B022201921A690092EC
:10074C000FCB00F0F8FB074B022201921A690092C2
:10075C000FCB00F0F0FB00BFBD4680BD3800002081
:10076C00580000204400002080B500AF354B1B78AA
:10077C00022B65D13448FFF70BFE0346002B18D033
:10078C00324B1A78324B1B789A4203D02F4B1A7883
:10079C002F4B1A702F4B00221A602A4B03221A700F
:1007AC00284B1B782C4A12781146184600F0D8F9C1
:1007BC0046E02A48FFF7FFFD0346002B18D0244BD8
:1007CC001B780133DAB2224B1A70214B1B78632B46
:1007DC0002D91F4B01221A701A4B1B781C4A127833
:1007EC001146184600F0BCF91A4B00221A601DE0A5
:1007FC001A48FFF7CDFD0346002B17D0144B1B787E
:10080C000133DAB2124B1A70114B1B78632B02D9DD
:10081C000F4B01221A700B4B1B780D4A12781146A4
:10082C00184600F09DF90B4B00221A600C48FFF79C
:10083C00AFFD0346002B03D0054B1A78034B1A70FF
:10084C0000BF80BD380000206C0000200500002097
:10085C00020000203C00002003000020800000204B
:10086C009400002080B582B002AF9B4B1B78002B0C
:10087C0040F02E81994B1B78022B61D0022B00F398
:10088C008C80002B02D0012B2DD086E0944B0022C3
:10089C0001921A6900920FCB00F002FB914B1B786E
:1008AC00002B17D1904B1A788E4B1A708C4B01225F
:1008BC0001921A6900920FCB00F0F2FA8B4B1B7865
:1008CC005A1ED1B2894A1170894A1370834B012286
:1008DC001A7062E0834B1B785A1ED1B2814A117098
:1008EC00834A137059E07E4B012201921A690092DF
:1008FC000FCB00F0D5FA7D4B1B78002B17D17D4B1D
:10090C001A787A4B1A70764B022201921A6900926D
:10091C000FCB00F0C5FA784B1B785A1ED1B2764A31
:10092C001170734A13706D4B02221A7035E06F4BC5
:10093C001B785A1ED1B26D4A11706D4A13702CE09F
:10094C00674B022201921A6900920FCB00F0A8FAB1
:10095C00694B1B78002B17D1684B1A78664B1A70B1
:10096C005F4B002201921A6900920FCB00F098FAAB
:10097C005C4B1B785A1ED1B25A4A11705C4A1370E8
:10098C00564B00221A7008E05B4B1B785A1ED1B2F2
:10099C00594A1170564A137000BF594B1B78022BE1
:1009AC0061D0022B00F38C80002B02D0012B2DD0B8
:1009BC0086E0544B002201921A6900920FCB00F092
:1009CC006FFA514B1B78002B17D1474B1A784E4BB3
:1009DC001A704C4B012201921A6900920FCB00F055
:1009EC005FFA4A4B1B785A1ED1B2484A1170484ADA
:1009FC001370434B01221A7062E0434B1B785A1E52
:100A0C00D1B2414A1170424A137059E03D4B012258
:100A1C0001921A6900920FCB00F042FA3B4B1B7803
:100A2C00002B17D1334B1A78384B1A70354B0222E6
:100A3C0001921A6900920FCB00F032FA354B1B78F9
:100A4C005A1ED1B2334A1170314A13702C4B022208
:100A5C001A7035E02D4B1B785A1ED1B22B4A1170EF
:100A6C002B4A13702CE0274B022201921A69009238
:100A7C000FCB00F015FA274B1B78002B17D11F4B0F
:100A8C001A78244B1A701F4B002201921A6900929B
:100A9C000FCB00F005FA1C4B1B785A1ED1B21A4A28
:100AAC0011701B4A1370164B00221A7008E0194B78
:100ABC001B785A1ED1B2174A1170154A137000BF19
:100ACC000B4B1B78124A12781146184600F048F866
:100ADC0000BFBD4680BD00BF38000020390000209B
:100AEC00580000200700002004000020090000200E
:100AFC003A0000200600002008000020050000201D
:100B0C0000000020440000200A0000200C000020FF
:100B1C003B0000200B00002080B500AF0C4B1B7875
:100B2C00002B13D10B48FFF733FC0346002B0DD0E1
:100B3C00074B01221A70084B00221A60044B1B78D9
:100B4C00064A12781146184600F00AF800BF80BD1C
:100B5C00380000206C0000203C0000200100002028
:100B6C0080B483B000AF03460A46FB711346BB71D9
:100B7C00FB79194AA2FB0323DB08DBB21A46174B9D
:100B8C001A60FA79144BA3FB0213D9080B469B008D
:100B9C000B445B00D31ADBB21A46104B5A60BB797C
:100BAC000D4AA2FB0323DB08DBB21A460B4B9A60FF
:100BBC00BA79094BA3FB0213D9080B469B000B44D3
:100BCC005B00D31ADBB21A46044BDA6000BF0C3759
:100BDC00BD4680BC704700BFCDCCCCCCA80000205B
:100BEC0080B582B000AF0346FB71FB79012B08D0B6
:100BFC00FB79042B05D000222021454801F027F970
:100C0C0004E001222021424801F021F9FB79052B57
:100C1C0008D0FB79062B05D0002240213C4801F07E
:100C2C0016F904E001224021394801F010F9FB7952
:100C3C00022B05D000228021354801F008F904E090
:100C4C0001228021324801F002F9FB79012B0CD0F2
:100C5C00FB79042B09D0FB79072B06D000224FF42B
:100C6C0080712B4801F0F3F805E001224FF48071FC
:100C7C00274801F0ECF8FB79002B08D0FB79022B0C
:100C8C0005D0FB79062B02D0FB79082B06D100226C
:100C9C004FF400711E4801F0DAF805E001224FF420
:100CAC0000711B4801F0D3F8FB79012B0FD0FB79B5
:100CBC00022B0CD0FB79032B09D0FB79072B06D028
:100CCC0000224FF48061124801F0C1F805E00122C6
:100CDC004FF480610E4801F0BAF8FB79002B0CD070
:100CEC00FB79012B09D0FB79072B06D000224FF49E
:100CFC000061074801F0ABF806E001224FF40061F7
:100D0C00034801F0A4F800BF00BF0837BD4680BD02
:100D1C00000C014080B582B000AF78607B68032B7B
:100D2C007AD801A252F823F0450D00087D0D000879
:100D3C00B50D0008ED0D00083A4B1B68DBB21846E8
:100D4C00FFF74EFF00222021374801F080F80122E6
:100D5C004021354801F07BF801228021324801F016
:100D6C0076F801224FF480712F4801F070F854E0AE
:100D7C002C4B5B68DBB21846FFF732FF01222021B7
:100D8C00294801F064F800224021274801F05FF85F
:100D9C0001228021244801F05AF801224FF480717D
:100DAC00214801F054F838E01E4B9B68DBB2184622
:100DBC00FFF716FF012220211B4801F048F8012201
:100DCC004021194801F043F800228021164801F017
:100DDC003EF801224FF48071134801F038F81CE002
:100DEC00104BDB68DBB21846FFF7FAFE012220211C
:100DFC000D4801F02CF8012240210B4801F027F896
:100E0C0001228021084801F022F800224FF4807161
:100E1C00054801F01CF800E000BF00BF0837BD46D4
:100E2C0080BD00BFA80000200008014080B500AFC5
:100E3C00084B1B68032B02DD064B00221A60054B86
:100E4C001B685A1C03490A601846FFF763FF00BF72
:100E5C0080BD00BF3C00002080B485B000AFF860BE
:100E6C00084611461A4603467B810B463B811346C6
:100E7C00FB80FB687A891A80FB683A895A80FB6888
:100E8C00FA889A80FB68BA699A60FB68FA69DA603A
:100E9C00FB683A6A1A6100BF1437BD4680BC7047C4
:100EAC0084B080B500AF07F1080C8CE80F003B7FD5
:100EBC00002B12D13B6939890022184600F0C7FF7C
:100ECC007B6979890122184600F0C1FFBB69B98999
:100EDC000122184600F0BBFF27E03B7F022B12D10A
:100EEC003B6939890122184600F0B1FF7B69798989
:100EFC000022184600F0ABFFBB69B98901221846E5
:100F0C0000F0A5FF11E03B6939890122184600F079
:100F1C009EFF7B6979890122184600F098FFBB6916
:100F2C00B9890022184600F092FF00BFBD46BDE80B
:100F3C00804004B0704784B080B500AF07F1080C56
:100F4C008CE80F003B7F002B12D13B693A8911468C
:100F5C00184600F094FF7B6979890122184600F04D
:100F6C0076FFBB69B9890122184600F070FF27E0B3
:100F7C003B7F022B12D13B6939890122184600F0C4
:100F8C0066FF7B697A891146184600F078FFBB69C9
:100F9C00B9890122184600F05AFF11E03B693989E2
:100FAC000122184600F053FF7B697989012218460B
:100FBC0000F04DFFBB69BA891146184600F05FFF7F
:100FCC0000BFBD46BDE8804004B0704780B584B01A
:100FDC0004AF00F03BFC00F08BF800F011F900F0CE
:100FEC00C3F8314801F090FB304B02932F4B019327
:100FFC002E4B00931023082204212D48FFF72CFFC1
:10100C002C4B02932B4B01932A4B00934FF48043B0
:10101C004FF400524FF480512748FFF71DFF254A2B
:10102C0001212648FFF78CF8224A02212448FFF7B9
:10103C0087F8204A04212348FFF782F86422002114
:10104C00214800F087F91E220021204800F082F987
:10105C001E2200211E4800F07DF91E2200211D4891
:10106C0000F078F9012200211B4800F073F90122ED
:10107C0000211A4800F06EF901220021184800F0F6
:10108C0069F901220021174800F064F919220021A6
:10109C00154800F05FF901220021144800F05AF9BC
:1010AC0000F016FAFCE700BFB80000200008014071
:1010BC0058000020000C0140440000206C0000206F
:1010CC00800000209400002071080008F905000839
:1010DC00E903000835070008250B0008390600084D
:1010EC007507000829040008390E00089D01000846
:1010FC0080B590B000AF07F11803282200211846E4
:10110C0001F0B2FE3B1D00221A605A609A60DA6050
:10111C001A610223BB610123BB621023FB62002313
:10112C007B6307F11803184600F0C2FE0346002B40
:10113C0001D000F0EEF80F237B600023BB6000238E
:10114C00FB6000233B6100237B613B1D00211846A3
:10115C0001F02EF90346002B01D000F0DAF800BFA5
:10116C004037BD4680BD000080B586B000AF07F1AA
:10117C00080300221A605A609A60DA603B4600222B
:10118C001A605A601D4B4FF080421A601B4B41F69F
:10119C003F725A60194B00229A60184B0922DA6090
:1011AC00164B00221A61154B00229A61134801F06C
:1011BC005BFA0346002B01D000F0ABF84FF48053E0
:1011CC00BB6007F1080319460C4801F0D9FB034634
:1011DC00002B01D000F09DF800233B6000237B60C6
:1011EC003B461946054801F0B1FD0346002B01D0E2
:1011FC0000F08FF800BF1837BD4680BDB800002046
:10120C0080B588B000AF07F1100300221A605A6055
:10121C009A60DA60344B9B69334A43F01003936154
:10122C00314B9B6903F01003FB60FB682E4B9B69F1
:10123C002D4A43F0200393612B4B9B6903F0200351
:10124C00BB60BB68284B9B69274A43F0040393613E
:10125C00254B9B6903F004037B607B68224B9B69E5
:10126C00214A43F0080393611F4B9B6903F0080369
:10127C003B603B6800224FF4FE711C4800F0E7FD18
:10128C00002247F6E0711A4800F0E1FD4FF4FE73BE
:10129C003B6101237B610023BB610223FB6107F1EE
:1012AC0010031946114800F041FC07233B61002351
:1012BC007B610123BB6107F1100319460C4800F058
:1012CC0035FC47F6E0733B6101237B610023BB6176
:1012DC000223FB6107F110031946054800F026FCB8
:1012EC0000BF2037BD4680BD001002400008014001
:1012FC00000C014080B582B000AF78607B681B6841
:10130C00B3F1804F01D100F009F800BF0837BD469A
:10131C0080BD80B400AF72B600BFFEE780B400AFF2
:10132C000B4B1B68002B0FD0094B5B68002B06D1B5
:10133C00074B1B7C0133DAB2054B1A7404E0044BE7
:10134C005B68013B024A536000BFBD4680BC7047DE
:10135C0000010020B0B489B000AFF860B9607A60C9
:10136C000023FB770023BB61574B1B680133564AA4
:10137C0013600EE0FA7F554913469B0013449B0003
:10138C000B4404331B68BA691344BB61FB7F013304
:10139C00FB77FB7F272B17D8FA7F4C4913469B0012
:1013AC0013449B000B441B68002B0DD0FA7F47495C
:1013BC0013469B0013449B000B4404331A68BB690F
:1013CC001344BA689A42D5D8FB7F282B01D100234D
:1013DC0074E03D4B1B68DBB2013BFB7517E0FB7DFA
:1013EC005A1EF97D39480B469B000B449B00184450
:1013FC00364913469B0013449B000B4404461D4680
:10140C000FCD0FC42B682360FB7D013BFB75FA7D70
:10141C00FB7F9A42E3D8FA7F2C4913469B00134476
:10142C009B000B44FA681A60FA7F284913469B000C
:10143C0013449B000B4408337A681A60FA7F2349E3
:10144C0013469B0013449B000B44103300221A706C
:10145C00FA7FB968BB69C91A1C4813469B00134430
:10146C009B00034404331960FB7F5A1C1749134635
:10147C009B0013449B000B441B68002B1DD0FB7F6F
:10148C005A1C124913469B0013449B000B44043313
:10149C001968FA7F0D4813469B0013449B000344C4
:1014AC0004331B68FA7F0132C91A084813469B00A3
:1014BC0013449B00034404331960FB7F1846243704
:1014CC00BD46B0BC704700BF4000002000010020AA
:1014DC00B0B586B000AF26E0174B1B689847164B8B
:1014EC0000221A74144B3C1D1D460FCD0FC42B68E3
:1014FC002360002000F022F8FB68002B05D07B68ED
:10150C00F968FA681846FFF725FF0B4B5B68002B50
:10151C0009D1094B1B68002B05D0074B1B7C0133F1
:10152C00DAB2054B1A74044B1B7C002BD4D100BFD0
:10153C0000BF1837BD46B0BD0001002080B485B097
:10154C0000AF0346FB71FA79644913469B001344C0
:10155C009B000B441B68002B03D0614B1B68002BBA
:10156C0001D10023B4E0FB79FB73FB7B5A1C5B4974
:10157C0013469B0013449B000B441B68002B6CD040
:10158C00FB7B5A1C554913469B0013449B000B4490
:10159C0004331968FA7B514813469B0013449B0093
:1015AC00034404331B68FA7B013219444B4813463D
:1015BC009B0013449B000344043319604DE0FB7BF8
:1015CC00591CFA7B45480B469B000B449B0003447B
:1015DC001968424813469B0013449B00034419604E
:1015EC00FB7B591CFA7B3D480B469B000B449B0034
:1015FC00034404331968394813469B0013449B0079
:10160C00034404331960FB7B591CFA7B33480B46AB
:10161C009B000B449B000344083319682F48134666
:10162C009B0013449B00034408331960FB7B591C3B
:10163C00FA7B2A480B469B000B449B000344103357
:10164C001878264913469B0013449B000B44103317
:10165C0002461A70FB7B0133FB73FA7B204B1B6831
:10166C00013B9A42ABD31E4B1B685A1E1B491346B7
:10167C009B0013449B000B4400221A60184B1B6800
:10168C005A1E164913469B0013449B000B4404330B
:10169C0000221A60124B1B685A1E104913469B00FD
:1016AC0013449B000B44083300221A600C4B1B683C
:1016BC005A1E0A4913469B0013449B000B441033DB
:1016CC0000221A70064B1B68013B054A136001236C
:1016DC0018461437BD4680BC704700BF000100207F
:1016EC004000002080B485B000AF154B9B69144AB4
:1016FC0043F001039361124B9B6903F00103BB6040
:10170C00BB680F4BDB690E4A43F08053D3610C4B23
:10171C00DB6903F080537B607B680A4B5B68FB6082
:10172C00FB6823F0E063FB60FB6843F00073FB6035
:10173C00044AFB68536000BF1437BD4680BC704739
:10174C00001002400000014080B584B000AF78600A
:10175C007B681B68B3F1804F13D10C4BDB690B4AD0
:10176C0043F00103D361094BDB6903F00103FB6018
:10177C00FB68002200211C2000F0A1F91C2000F0C5
:10178C00BAF900BF1037BD4680BD00BF0010024043
:10179C0080B400AFFEE780B400AFFEE780B400AFCA
:1017AC00FEE780B400AFFEE780B400AFFEE780B484
:1017BC0000AF00BFBD4680BC704780B400AF00BF17
:1017CC00BD4680BC704780B400AF00BFBD4680BC36
:1017DC00704780B500AF00F07FF800BF80BD0000FF
:1017EC0080B500AF024800F0DBFF00BF80BD00BF3A
:1017FC00B800002080B400AF00BFBD4680BC70476D
:10180C00FFF7F8FF0B480C490C4A002302E0D458B0
:10181C00C4500433C4188C42F9D3094A094C002330
:10182C0001E013600432A242FBD301F0F9FAFFF796
:10183C00CDFB7047000000201C000020C82E0008C3
:10184C001C00002024040020FEE7000080B500AF3F
:10185C00084B1B68074A43F010031360032000F089
:10186C0023F90F2000F008F8FFF73CFF002318467F
:10187C0080BD00BF0020024080B582B000AF786010
:10188C00124B1A68124B1B7819464FF47A73B3FB40
:10189C00F1F3B2FBF3F3184600F03BF90346002BCF
:1018AC0001D001230EE07B680F2B0AD80022796847
:1018BC004FF0FF3000F003F9064A7B6813600023F9
:1018CC0000E0012318460837BD4680BD10000020FB
:1018DC00180000201400002080B400AF054B1B78CA
:1018EC001A46054B1B681344034A136000BFBD46E0
:1018FC0080BC7047180000202004002080B400AF8A
:10190C00024B1B681846BD4680BC70472004002063
:10191C0080B485B000AF78607B6803F00703FB6090
:10192C000C4BDB68BB60BA684FF6FF031340BB601F
:10193C00FB681A02BB68134343F0BF6343F40033E4
:10194C00BB60044ABB68D36000BF1437BD4680BC83
:10195C00704700BF00ED00E080B400AF044BDB68C3
:10196C001B0A03F007031846BD4680BC704700BF36
:10197C0000ED00E080B483B000AF0346FB7197F933
:10198C000730002B0BDBFB7903F01F02064997F99C
:10199C0007305B09012000FA02F241F8232000BF56
:1019AC000C37BD4680BC704700E100E080B483B0CA
:1019BC0000AF03463960FB7197F90730002B0ADB47
:1019CC003B68DAB20C4997F907301201D2B20B44DA
:1019DC0083F800230AE03B68DAB20849FB7903F08C
:1019EC000F03043B1201D2B20B441A7600BF0C3722
:1019FC00BD4680BC704700BF00E100E000ED00E098
:101A0C0080B489B000AFF860B9607A60FB6803F00D
:101A1C000703FB61FB69C3F10703042B28BF0423F5
:101A2C00BB61FB690433062B02D9FB69033B00E065
:101A3C0000237B614FF0FF32BB6902FA03F3DA43F8
:101A4C00BB681A407B699A404FF0FF317B6901FA01
:101A5C0003F3D9437B680B40134318462437BD4628
:101A6C0080BC704780B582B000AF78607B68013B6A
:101A7C00B3F1807F01D301230FE00A4A7B68013B5D
:101A8C0053600F214FF0FF30FFF790FF054B002202
:101A9C009A60044B07221A60002318460837BD468B
:101AAC0080BD00BF10E000E080B582B000AF786070
:101ABC007868FFF72DFF00BF0837BD4680BD80B5A5
:101ACC0086B000AF0346B9607A60FB7300237B617C
:101ADC00FFF742FF78617A68B9687869FFF790FF81
:101AEC00024697F90F3011461846FFF75FFF00BF0B
:101AFC001837BD4680BD80B582B000AF0346FB7180
:101B0C0097F907301846FFF735FF00BF0837BD4679
:101B1C0080BD80B582B000AF78607868FFF7A2FF17
:101B2C00034618460837BD4680BD000080B48BB014
:101B3C0000AF7860396000237B6200233B6248E190
:101B4C0001227B6A02FA03F3FB613B681B68FA69AA
:101B5C001340BB61BA69FB699A4240F037813B681C
:101B6C005B68A34A93425ED0A14A934275D8A14ABE
:101B7C00934258D09F4A93426FD89F4A934252D077
:101B8C009D4A934269D89D4A93424CD09B4A9342BA
:101B9C0063D89B4A934246D0994A93425DD8122B04
:101BAC002AD8122B59D801A252F823F0331C000862
:101BBC000D1C00081F1C0008611C0008671C000895
:101BCC00671C0008671C0008671C0008671C0008DD
:101BDC00671C0008671C0008671C0008671C0008CD
:101BEC00671C0008671C0008671C0008671C0008BD
:101BFC00151C0008291C0008824A934213D02CE0C3
:101C0C003B68DB683B6229E03B68DB6804333B6282
:101C1C0024E03B68DB6808333B621FE03B68DB6811
:101C2C000C333B621AE03B689B68002B02D1042307
:101C3C003B6213E03B689B68012B05D108233B6298
:101C4C007B68FA691A6109E008233B627B68FA69D0
:101C5C005A6103E000233B6200E000BFBB69FF2B2D
:101C6C0001D87B6801E07B6804337B61BB69FF2B87
:101C7C0002D87B6A9B0002E07B6A083B9B003B61BD
:101C8C007B691A680F213B6901FA03F3DB431A40A5
:101C9C00396A3B6901FA03F31A437B691A603B68A2
:101CAC005B6803F08053002B00F09080564B9B69CF
:101CBC00554A43F001039361534B9B6903F00103B5
:101CCC00BB60BB68514A7B6A9B08023352F82330D5
:101CDC00FB607B6A03F003039B000F2202FA03F301
:101CEC00DB43FA681340FB607B68494A93420DD092
:101CFC007B68484A934207D07B68474A934201D19C
:101D0C00022304E0032302E0012300E000237A6AAB
:101D1C0002F0030292009340FA681343FB603B49C4
:101D2C007B6A9B080233FA6841F823203B685B68A6
:101D3C0003F48013002B06D0384B9A683749BB69E3
:101D4C0013438B6006E0354B9A68BB69DB43334920
:101D5C0013408B603B685B6803F40013002B06D0C8
:101D6C002E4BDA682D49BB691343CB6006E02B4B35
:101D7C00DA68BB69DB4329491340CB603B685B687D
:101D8C0003F40033002B06D0244B5A682349BB695B
:101D9C0013434B6006E0214B5A68BB69DB431F4978
:101DAC0013404B603B685B6803F48033002B06D018
:101DBC001A4B1A681949BB6913430B6006E0174BA1
:101DCC001A68BB69DB43154913400B607B6A01330E
:101DDC007B623B681A687B6A22FA03F3002B7FF460
:101DEC00AFAE00BF00BF2C37BD4680BC704700BFF4
:101DFC0000003210000031100000221000002110F1
:101E0C0000001210000011100010024000000140F0
:101E1C0000080140000C014000100140000401408A
:101E2C0080B485B000AF78600B467B807B689A6885
:101E3C007B881340002B02D00123FB7301E00023AD
:101E4C00FB73FB7B18461437BD4680BC704780B4CF
:101E5C0083B000AF78600B467B8013467B707B7839
:101E6C00002B03D07A887B681A6103E07B881A0404
:101E7C007B681A6100BF0C37BD4680BC704780B4CC
:101E8C0085B000AF78600B467B807B68DB68FB60BD
:101E9C007A88FB6813401A04FB68D9437B880B4093
:101EAC001A437B681A6100BF1437BD4680BC70476B
:101EBC0080B586B000AF78607B68002B01D1012320
:101ECC006CE27B681B6803F00103002B00F0878039
:101EDC00924B5B6803F00C03042B0CD08F4B5B68AC
:101EEC0003F00C03082B12D18C4B5B6803F480338A
:101EFC00B3F5803F0BD1894B1B6803F40033002BE7
:101F0C006CD07B685B68002B68D1012346E27B6850
:101F1C005B68B3F5803F06D1804B1B687F4A43F466
:101F2C00803313602EE07B685B68002B0CD17B4BFD
:101F3C001B687A4A23F480331360784B1B68774A0A
:101F4C0023F4802313601DE07B685B68B3F5A02F3E
:101F5C000CD1724B1B68714A43F4802313606F4B96
:101F6C001B686E4A43F4803313600BE06B4B1B68A9
:101F7C006A4A23F480331360684B1B68674A23F466
:101F8C00802313607B685B68002B13D0FFF7B6FCD3
:101F9C00386108E0FFF7B2FC02463B69D31A642BA8
:101FAC0001D90323FAE15D4B1B6803F40033002BCA
:101FBC00F0D014E0FFF7A2FC386108E0FFF79EFCBC
:101FCC0002463B69D31A642B01D90323E6E1534B38
:101FDC001B6803F40033002BF0D100E000BF7B68DA
:101FEC001B6803F00203002B63D04C4B5B6803F0BF
:101FFC000C03002B0BD0494B5B6803F00C03082B34
:10200C001CD1464B5B6803F48033002B16D1434B39
:10201C001B6803F00203002B05D07B681B69012BA6
:10202C0001D00123BAE13D4B1B6823F0F8027B6819
:10203C005B69DB00394913430B603AE07B681B6931
:10204C00002B20D0364B01221A60FFF757FC386169
:10205C0008E0FFF753FC02463B69D31A022B01D967
:10206C0003239BE12D4B1B6803F00203002BF0D0E4
:10207C002A4B1B6823F0F8027B685B69DB0027495D
:10208C0013430B6015E0264B00221A60FFF736FC59
:10209C00386108E0FFF732FC02463B69D31A022B89
:1020AC0001D903237AE11D4B1B6803F00203002BBB
:1020BC00F0D17B681B6803F00803002B3AD07B68D7
:1020CC009B69002B19D0174B01221A60FFF716FCE5
:1020DC00386108E0FFF712FC02463B69D31A022B69
:1020EC0001D903235AE10D4B5B6A03F00203002B69
:1020FC00F0D0012000F09AFA1CE00A4B00221A6082
:10210C00FFF7FCFB38610FE0FFF7F8FB02463B6979
:10211C00D31A022B08D9032340E100BF0010024060
:10212C0000004242800442429E4B5B6A03F0020371
:10213C00002BE9D17B681B6803F00403002B00F033
:10214C00A6800023FB75974BDB6903F08053002BB3
:10215C000DD1944BDB69934A43F08053D361914B7F
:10216C00DB6903F08053BB60BB680123FB758E4BAE
:10217C001B6803F48073002B18D18B4B1B688A4AA5
:10218C0043F480731360FFF7B9FB386108E0FFF785
:10219C00B5FB02463B69D31A642B01D90323FDE03E
:1021AC00814B1B6803F48073002BF0D07B68DB68D9
:1021BC00012B06D17B4B1B6A7A4A43F00103136255
:1021CC002DE07B68DB68002B0CD1764B1B6A754AC3
:1021DC0023F001031362734B1B6A724A23F004034E
:1021EC0013621CE07B68DB68052B0CD16D4B1B6A02
:1021FC006C4A43F0040313626A4B1B6A694A43F04E
:10220C00010313620BE0674B1B6A664A23F0010360
:10221C001362644B1B6A634A23F0040313627B68EA
:10222C00DB68002B15D0FFF769FB38610AE0FFF77C
:10223C0065FB02463B69D31A41F28832934201D9BD
:10224C000323ABE0574B1B6A03F00203002BEED0C9
:10225C0014E0FFF753FB38610AE0FFF74FFB02462F
:10226C003B69D31A41F28832934201D9032395E09A
:10227C004C4B1B6A03F00203002BEED1FB7D012BB0
:10228C0005D1484BDB69474A23F08053D3617B6807
:10229C00DB69002B00F08180424B5B6803F00C0380
:1022AC00082B61D07B68DB69022B46D13F4B0022A7
:1022BC001A60FFF723FB386108E0FFF71FFB0246AB
:1022CC003B69D31A022B01D9032367E0354B1B68FA
:1022DC0003F00073002BF0D17B681B6AB3F5803FD1
:1022EC0008D1304B5B6823F400327B689B682D4926
:1022FC0013434B602B4B5B6823F474127B68196A95
:10230C007B685B6A0B43274913434B60274B0122C5
:10231C001A60FFF7F3FA386108E0FFF7EFFA0246AC
:10232C003B69D31A022B01D9032337E01D4B1B68E1
:10233C0003F00073002BF0D02FE01C4B00221A602E
:10234C00FFF7DCFA386108E0FFF7D8FA02463B6980
:10235C00D31A022B01D9032320E0124B1B6803F084
:10236C000073002BF0D118E07B68DB69012B01D1E5
:10237C00012313E00B4B5B68FB60FB6803F48032BA
:10238C007B681B6A9A4206D1FB6803F470127B6867
:10239C005B6A9A4201D0012300E0002318461837EB
:1023AC00BD4680BD001002400070004060004242FB
:1023BC0080B584B000AF786039607B68002B01D1A8
:1023CC000123D0E06A4B1B6803F007033A689A427A
:1023DC0010D9674B1B6823F0070265493B68134310
:1023EC000B60634B1B6803F007033A689A4201D0F9
:1023FC000123B8E07B681B6803F00203002B20D09C
:10240C007B681B6803F00403002B05D0594B5B68F9
:10241C00584A43F4E06353607B681B6803F008037D
:10242C00002B05D0534B5B68524A43F46053536006
:10243C00504B5B6823F0F0027B689B684D4913435B
:10244C004B607B681B6803F00103002B40D07B685A
:10245C005B68012B07D1474B1B6803F40033002B3F
:10246C0015D101237FE07B685B68022B07D1414BC0
:10247C001B6803F00073002B09D1012373E03D4B63
:10248C001B6803F00203002B01D101236BE0394BD5
:10249C005B6823F003027B685B68364913434B602F
:1024AC00FFF72CFAF8600AE0FFF728FA0246FB68FF
:1024BC00D31A41F28832934201D9032353E02D4BB6
:1024CC005B6803F00C027B685B689B009A42EBD163
:1024DC00274B1B6803F007033A689A4210D2244B2F
:1024EC001B6823F0070222493B6813430B60204B07
:1024FC001B6803F007033A689A4201D0012332E0CB
:10250C007B681B6803F00403002B08D0194B5B6835
:10251C0023F4E0627B68DB68164913434B607B68ED
:10252C001B6803F00803002B09D0124B5B6823F4E3
:10253C0060527B681B69DB000E4913434B6000F053
:10254C0021F802460B4B5B681B0903F00F030A4989
:10255C00CB5C22FA03F3094A1360094B1B6818463B
:10256C00FFF78AF9002318461037BD4680BD00BF1F
:10257C0000200240001002409C2E00081000002099
:10258C001400002080B487B000AF0023FB60002350
:10259C00BB6000237B6100237B6000233B611E4BEF
:1025AC005B68FB60FB6803F00C03042B02D0082B68
:1025BC0003D027E0194B3B6127E0FB689B0C03F031
:1025CC000F03174AD35C7B60FB6803F48033002B4A
:1025DC0010D0114B5B685B0C03F00103114AD35C08
:1025EC00BB607B680D4A02FB03F2BB68B2FBF3F3E2
:1025FC007B6104E07B680C4A02FB03F37B617B6923
:10260C003B6102E0054B3B6100BF3B6918461C3740
:10261C00BD4680BC704700BF0010024000127A001B
:10262C00AC2E0008BC2E000800093D0080B485B01B
:10263C0000AF78600A4B1B680A4AA2FB03235B0AB3
:10264C007A6802FB03F3FB6000BFFB685A1EFA605A
:10265C00002BF9D100BF00BF1437BD4680BC7047BA
:10266C0010000020D34D621080B582B000AF7860AE
:10267C007B68002B01D1012341E07B6893F83D304E
:10268C00DBB2002B06D17B68002283F83C207868F3
:10269C00FFF75AF87B68022283F83D207B681A68A2
:1026AC007B6804331946104600F056FA7B68012209
:1026BC0083F846207B68012283F83E207B68012248
:1026CC0083F83F207B68012283F840207B6801223D
:1026DC0083F841207B68012283F842207B68012229
:1026EC0083F843207B68012283F844207B68012215
:1026FC0083F845207B68012283F83D20002318468F
:10270C000837BD4680BD000080B485B000AF78604E
:10271C007B6893F83D30DBB2012B01D0012335E00F
:10272C007B68022283F83D207B681B68DA687B6833
:10273C001B6842F00102DA607B681B68164A934200
:10274C0009D07B681B68B3F1804F04D07B681B6891
:10275C00124A934211D17B681B689B6803F00703F4
:10276C00FB60FB68062B10D07B681B681A687B68C3
:10277C001B6842F001021A6007E07B681B681A684C
:10278C007B681B6842F001021A600023184614375C
:10279C00BD4680BC704700BF002C014000040040C7
:1027AC0080B584B000AF78607B681B68DB68FB6029
:1027BC007B681B681B69BB60BB6803F00203002BC2
:1027CC0020D0FB6803F00203002B1BD07B681B6836
:1027DC006FF002021A617B6801221A777B681B6812
:1027EC009B6903F00303002B03D0786800F098F981
:1027FC0005E0786800F08BF9786800F09AF97B684E
:10280C0000221A77BB6803F00403002B20D0FB686E
:10281C0003F00403002B1BD07B681B686FF00402D1
:10282C001A617B6802221A777B681B689B6903F428
:10283C004073002B03D0786800F072F905E07868DB
:10284C0000F065F9786800F074F97B6800221A775B
:10285C00BB6803F00803002B20D0FB6803F00803CF
:10286C00002B1BD07B681B686FF008021A617B6819
:10287C0004221A777B681B68DB6903F00303002BC7
:10288C0003D0786800F04CF905E0786800F03FF967
:10289C00786800F04EF97B6800221A77BB6803F069
:1028AC001003002B20D0FB6803F01003002B1BD06F
:1028BC007B681B686FF010021A617B6808221A771C
:1028CC007B681B68DB6903F44073002B03D07868CA
:1028DC0000F026F905E0786800F019F9786800F046
:1028EC0028F97B6800221A77BB6803F00103002BE0
:1028FC000CD0FB6803F00103002B07D07B681B682E
:10290C006FF001021A617868FEF7F4FCBB6803F003
:10291C008003002B0CD0FB6803F08003002B07D046
:10292C007B681B686FF080021A61786800F06FFAA0
:10293C00BB6803F04003002B0CD0FB6803F0400392
:10294C00002B07D07B681B686FF040021A61786817
:10295C0000F0F8F8BB6803F02003002B0CD0FB68E8
:10296C0003F02003002B07D07B681B686FF020025C
:10297C001A61786800F042FA00BF1037BD4680BD7E
:10298C0080B584B000AF786039600023FB737B683E
:10299C0093F83C30012B01D10223B4E07B68012277
:1029AC0083F83C207B68022283F83D207B681B68FF
:1029BC009B68BB60BB6823F07703BB60BB6823F4E8
:1029CC007F43BB607B681B68BA689A603B681B6876
:1029DC00B3F5005F3ED0B3F5005F00F28780B3F52E
:1029EC00805F00F08680B3F5805F7FD8702B1AD0A3
:1029FC00702B7BD8602B50D0602B77D8502B3CD0D1
:102A0C00502B73D8402B58D0402B6FD8302B64D020
:102A1C00302B6BD8202B60D0202B67D8002B5CD0B0
:102A2C00102B5AD062E07B6818683B6899683B6849
:102A3C005A683B68DB6800F06AF97B681B689B6826
:102A4C00BB60BB6843F07703BB607B681B68BA68EC
:102A5C009A604FE07B6818683B6899683B685A68D5
:102A6C003B68DB6800F053F97B681B689A687B68ED
:102A7C001B6842F480429A603CE07B6818683B68B3
:102A8C0059683B68DB681A4600F0CAF87B681B681B
:102A9C005021184600F021F92CE07B6818683B683F
:102AAC0059683B68DB681A4600F0E8F87B681B68DD
:102ABC006021184600F011F91CE07B6818683B682F
:102ACC0059683B68DB681A4600F0AAF87B681B68FB
:102ADC004021184600F001F90CE07B681A683B684D
:102AEC001B681946104600F0F8F803E00123FB734D
:102AFC0000E000BF7B68012283F83D207B68002248
:102B0C0083F83C20FB7B18461037BD4680BD80B453
:102B1C0083B000AF786000BF0C37BD4680BC7047F7
:102B2C0080B483B000AF786000BF0C37BD4680BC6A
:102B3C00704780B483B000AF786000BF0C37BD46DF
:102B4C0080BC704780B483B000AF786000BF0C3796
:102B5C00BD4680BC7047000080B485B000AF786083
:102B6C0039607B681B68FB607B682B4A934207D0FB
:102B7C007B68B3F1804F03D07B68284A934208D11D
:102B8C00FB6823F07003FB603B685B68FA681343D7
:102B9C00FB607B68204A934207D07B68B3F1804F7F
:102BAC0003D07B681D4A934208D1FB6823F4407321
:102BBC00FB603B68DB68FA681343FB60FB6823F03F
:102BCC0080023B685B691343FB607B68FA681A60A0
:102BDC003B689A687B68DA623B681A687B689A6221
:102BEC007B680D4A934203D13B681A697B681A6370
:102BFC007B6801225A617B681B6903F00103002B7F
:102C0C0005D07B681B6923F001027B681A6100BF49
:102C1C001437BD4680BC7047002C014000040040B6
:102C2C0080B487B000AFF860B9607A60FB681B6A4B
:102C3C007B61FB681B6A23F00102FB681A62FB686C
:102C4C009B693B613B6923F0F0033B617B681B0193
:102C5C003A6913433B617B6923F00A037B617A6910
:102C6C00BB6813437B61FB683A699A61FB687A69BC
:102C7C001A6200BF1C37BD4680BC704780B487B059
:102C8C0000AFF860B9607A60FB681B6A7B61FB6817
:102C9C001B6A23F01002FB681A62FB689B693B619C
:102CAC003B6923F470433B617B681B033A69134314
:102CBC003B617B6923F0A0037B61BB681B017A69D4
:102CCC0013437B61FB683A699A61FB687A691A6203
:102CDC0000BF1C37BD4680BC704780B485B000AFC8
:102CEC00786039607B689B68FB60FB6823F070033D
:102CFC00FB603A68FB68134343F00703FB607B6897
:102D0C00FA689A6000BF1437BD4680BC704780B427
:102D1C0087B000AFF860B9607A603B60FB689B6875
:102D2C007B617B6923F47F437B613B681A027B6880
:102D3C001A43BB6813437A6913437B61FB687A6956
:102D4C009A6000BF1C37BD4680BC704780B485B00C
:102D5C0000AF786039607B6893F83C30012B01D16F
:102D6C00022341E07B68012283F83C207B6802222D
:102D7C0083F83D207B681B685B68FB607B681B6885
:102D8C009B68BB60FB6823F07003FB603B681B68AF
:102D9C00FA681343FB607B681B68FA685A607B68AF
:102DAC001B68144A934209D07B681B68B3F1804FAF
:102DBC0004D07B681B68104A93420CD1BB6823F08B
:102DCC008003BB603B685B68BA681343BB607B687D
:102DDC001B68BA689A607B68012283F83D207B6887
:102DEC00002283F83C20002318461437BD4680BCD3
:102DFC00704700BF002C01400004004080B483B039
:102E0C0000AF786000BF0C37BD4680BC704780B403
:102E1C0083B000AF786000BF0C37BD4680BC7047F4
:102E2C0070B500260C4D0D4C641BA410A64209D1A4
:102E3C0000F022F800260A4D0A4C641BA410A6428E
:102E4C0005D170BD55F8043B98470136EEE755F8AF
:102E5C00043B98470136F2E7C02E0008C02E00084C
:102E6C00C02E0008C42E000803460244934200D131
:102E7C00704703F8011BF9E7F8B500BFF8BC08BCB4
:102E8C009E467047F8B500BFF8BC08BC9E4670471C
:102E9C0000000000000000000102030406070809FE
:102EAC0002030405060708090A0B0C0D0E0F10107F
:042EBC00010200000F
:042EC00031010008D4
:042EC4000D010008F4
:102EC80001050203050203050203050203000000D1
:0C2ED80000127A00100000000100000051
:040000050800180DCA
:00000001FF
