:020000040800F2
:1000000000500020A11E0008C51D0008CB1D0008DF
:10001000D11D0008D71D0008DD1D000800000000EC
:10002000000000000000000000000000E31D0008C8
:10003000EF1D000800000000FB1D0008071E00085F
:10004000E91E0008E91E0008E91E0008E91E000874
:10005000E91E0008E91E0008E91E0008E91E000864
:10006000E91E0008E91E0008E91E0008E91E000854
:10007000E91E0008E91E0008E91E0008E91E000844
:10008000E91E0008E91E0008E91E0008E91E000834
:10009000E91E0008E91E0008E91E0008E91E000824
:1000A000E91E0008E91E0008E91E0008E91E000814
:1000B000151E0008E91E0008E91E0008E91E0008D8
:1000C000E91E0008E91E0008E91E0008E91E0008F4
:1000D000E91E0008E91E0008E91E0008E91E0008E4
:1000E000E91E0008E91E0008E91E000800000000E3
:1000F0000000000000000000000000000000000000
:0C01000000000000000000005FF808F1A3
:10010C0010B5054C237833B9044B13B10448AFF345
:10011C0000800123237010BDD000002000000000DF
:10012C009840000808B5034B1BB103490348AFF3D3
:10013C00008008BD00000000D4000020984000089A
:10014C0080B483B000AF78607B68002B02DB7B68E7
:10015C00022B01DD00230DE0094A7B6852F82330A5
:10016C00012B06D1064A7B68002142F8231001239B
:10017C0000E0002318460C37BD4680BC704700BF1A
:10018C00F800002080B483B000AF78607B68002B4F
:10019C0002DB7B68022B01DD00230DE0094A7B6842
:1001AC0052F82330012B06D1064A7B68002142F815
:1001BC002310012300E0002318460C37BD4680BCF9
:1001CC00704700BF0401002080B483B000AF78609A
:1001DC007B68002B02DB7B68022B01DD00230DE02A
:1001EC00094A7B6852F82330012B06D1064A7B68FA
:1001FC00002142F82310012300E0002318460C379D
:10020C00BD4680BC704700BF2801002080B483B07D
:10021C0000AF78601E4A7B68012142F823101D4A0A
:10022C007B6852F82330002B23DD1B4A7B6852F885
:10023C0023305A1C18497B6841F82320164A7B68E6
:10024C0052F82330022B1ED1144A7B68012142F84C
:10025C0023100F4A7B68002142F823100E4A7B685A
:10026C00002142F823100B4A7B68002142F823102E
:10027C0009E0094A7B68012142F82310054A7B6892
:10028C001E2142F8231000BF0C37BD4680BC7047BE
:10029C00F80000201C0100201001002004010020A7
:1002AC0080B582B000AF00237B60E1E0754A7B68CB
:1002BC0052F82330002B08DD724A7B6852F8233049
:1002CC005A1E70497B6841F823206F4A7B6852F8AC
:1002DC0023206E497B6841F823206D4A7B6852F8D5
:1002EC00232069497B6841F823206A4A7B6852F8CD
:1002FC00232069497B6831F813301946104602F007
:10030C0007F903461946624A7B6842F823105E4A95
:10031C007B6852F823205E497B6851F823309A425F
:10032C0040F0A380584A7B6852F8232057497B68D9
:10033C0051F823309A4240F09880544A7B6852F826
:10034C00232056497B6851F823309A4235D04F4AC6
:10035C007B6852F8232051497B6841F823204F4A8F
:10036C007B6852F82330002B12D14D4A7B686421F4
:10037C0042F823107868FFF749FF4A4A7B6800214E
:10038C0042F82310484A7B68002142F823106CE0A5
:10039C00464A7B68002142F82310424A7B680021C0
:1003AC0042F82310404A7B68002142F82310404A4F
:1003BC007B68002142F8231057E0384A7B6852F8DA
:1003CC002330002B51D1374A7B6852F82330002B55
:1003DC002CD1334A7B6852F823305A1E30497B6843
:1003EC0041F823202E4A7B6852F82330002B1DD174
:1003FC002E4A7B68012142F823102A4A7B6801218E
:10040C0042F823101F4A7B68002142F82310294A26
:10041C007B68002142F82310274A7B68002142F8B0
:10042C002310214A7B68322142F823101D4A7B6835
:10043C0052F82330012B18D11B4A7B6852F8233019
:10044C005A1E19497B6841F82320174A7B6852F8D9
:10045C002330002B09DC144A7B68322142F823102C
:10046C00134A7B68012142F823107B6801337B60BF
:10047C007B68022B7FF71AAF00BF00BF0837BD4661
:10048C0080BD00BF1C0100200C00002018000020C3
:10049C00000000203C000020480000202400002028
:1004AC00300000204001002034010020EC0000202E
:1004BC002801002010010020F800002080B500AFBA
:1004CC00094B1B78022B0DD1084B1B78002B09D143
:1004DC00074A002307CA01F055F8064A002307CA49
:1004EC0001F050F800BF80BD4C0100204D010020F0
:1004FC00740100206401002080B500AF4E4B1B78C6
:10050C00022B40F096804D4B1B78002B40F09180D5
:10051C000020FFF715FE0346002B49D0484B1B78F3
:10052C001A46484B1B781946474B1B780B449A428A
:10053C0006D0464B00221A703F4B03221A7078E00B
:10054C003F4B1A78424B1A703D4B1A78414B1A703C
:10055C003D4B1A78404B1A703A4B1A783F4B1A7035
:10056C00374B1A783E4B1A70374B1A783D4B1A7032
:10057C00344B1A783C4B1A70314B1A783B4B1A702F
:10058C00304B1A78394B5A70394A002307CA00F09D
:10059C00B5FF384A012307CA00F0B0FF364B0022E2
:1005AC001A70364B01221A70234B00221A7040E04D
:1005BC000120FFF709FE0346002B0DD0244B1B78BE
:1005CC000133DAB2224B1A70214B1B78632B20D9E2
:1005DC001F4B01221A701CE00120FFF7D3FD0346CC
:1005EC00002B03D01A4B01221A7012E00120FFF7E6
:1005FC00A7FD0346002B0CD0154B1B780133DAB248
:10060C00134B1A70124B1B78632B02D9104B01221F
:10061C001A700220FFF794FD0346002B09D00C4BF7
:10062C001A78074B1A70054B01221A70024B0222E2
:10063C001A7000BF80BD00BF4C0100204D0100208E
:10064C0052000020540000205300002070010020B4
:10065C004F000020550000205600002057000020BD
:10066C0058000020590000205A0000208001002072
:10067C0074010020640100204F0100204E00002076
:10068C0080B500AF094B1B78022B0DD1084B1B78A2
:10069C00012B09D1074A022307CA00F073FF064A4F
:1006AC00022307CA00F06EFF00BF80BD4C01002082
:1006BC004D010020740100206401002080B500AFC2
:1006CC00544B1B78022B40F0A380534B1B78012B0F
:1006DC0040F09E800020FFF733FD0346002B49D0ED
:1006EC004E4B1B781A464E4B1B7819464D4B1B78BC
:1006FC000B449A4206D04C4B00221A70454B0322F5
:10070C001A7085E0474B1A78484B1A70434B1A788D
:10071C00474B1A70434B1A78464B1A70404B1A7859
:10072C00454B1A703D4B1A78444B1A703D4B1A7856
:10073C00434B1A703A4B1A78424B1A70374B1A7853
:10074C00414B1A70364B1A783F4B5A703F4A002374
:10075C0007CA00F0D3FE3E4A012307CA00F0CEFEC2
:10076C003C4B00221A703C4B01221A70294B002280
:10077C001A704DE00120FFF727FD0346002B0DD02A
:10078C002A4B1B780133DAB2284B1A70274B1B7893
:10079C00632B20D9254B01221A701CE00120FFF796
:1007AC00F1FC0346002B03D0204B01221A7012E0FF
:1007BC000120FFF7C5FC0346002B0CD01B4B1B780C
:1007CC000133DAB2194B1A70184B1B78632B02D910
:1007DC00164B01221A700220FFF7B2FC0346002BC5
:1007EC0016D0124B1A780F4B1A700C4B1A780F4B01
:1007FC001B789A4206D80C4B01221A70054B032227
:10080C001A7005E0044B02221A70024B02221A7075
:10081C0000BF80BD4C0100204D0100205200002083
:10082C0054000020530000207001002050000020D4
:10083C0055000020560000205700002058000020D2
:10084C00590000205A000020800100207401002073
:10085C00640100204F0100204E00002080B500AF45
:10086C00094B1B78022B0DD1084B1B78022B09D19D
:10087C00074A012307CA00F085FE064A012307CA6E
:10088C0000F080FE00BF80BD4C0100204D01002017
:10089C00740100206401002080B500AF544B1B781C
:1008AC00022B40F0A380534B1B78022B40F09E8010
:1008BC000020FFF745FC0346002B49D04E4B1B781C
:1008CC001A464E4B1B7819464D4B1B780B449A42DB
:1008DC0006D04C4B00221A70454B03221A7085E04F
:1008EC00464B1A78484B1A70434B1A78474B1A7080
:1008FC00434B1A78464B1A70404B1A78454B1A707A
:10090C003D4B1A78444B1A703D4B1A78434B1A7076
:10091C003A4B1A78424B1A70374B1A78414B1A7073
:10092C00364B1A783F4B5A703F4A002307CA00F0E7
:10093C00E5FD3E4A012307CA00F0E0FD3C4B0022D6
:10094C001A703C4B01221A70294B00221A704DE090
:10095C000120FFF739FC0346002B0DD02A4B1B78E6
:10096C000133DAB2284B1A70274B1B78632B20D932
:10097C00254B01221A701CE00120FFF703FC0346F3
:10098C00002B03D0204B01221A7012E00120FFF73C
:10099C00D7FB0346002B0CD01B4B1B780133DAB270
:1009AC00194B1A70184B1B78632B02D9164B01226A
:1009BC001A700220FFF7C4FB0346002B16D0124B13
:1009CC001A780E4B1A700C4B1A780C4B1B789A42F7
:1009DC0006D80C4B02221A70054B03221A7005E044
:1009EC00044B00221A70024B02221A7000BF80BD09
:1009FC004C0100204D01002052000020540000202A
:100A0C0053000020700100205100002055000020F0
:100A1C0056000020570000205800002059000020EC
:100A2C005A00002080010020740100206401002085
:100A3C004F0100204E00002080B500AF074B1B7803
:100A4C00032B09D1064A002307CA00F09BFD054A77
:100A5C00002307CA00F096FD00BF80BD4C010020AA
:100A6C00740100206401002080B500AF2C4B1B7872
:100A7C00032B1FD12B4B1B78002B1BD10020FFF716
:100A8C005FFB0346002B15D0254B02221A70264B18
:100A9C0000221A70254B1A78254B1B781344DAB2B6
:100AAC00244B1A70214B1A78214B1B781344DAB261
:100ABC00214B1A701A4B1B78032B15D1194B1B7831
:100ACC00012B11D10020FFF73BFB0346002B0BD071
:100ADC00134B02221A70144B00221A70144B1B7801
:100AEC000133DAB2134B1A700D4B1B78032B15D153
:100AFC000C4B1B78022B11D10020FFF721FB034676
:100B0C00002B0BD0064B02221A70074B00221A70D6
:100B1C00064B1B780133DAB2064B1A7000BF80BD4E
:100B2C004C010020700100204D01002054000020D9
:100B3C00530000204F0000205200002080B500AF71
:100B4C00094B1B78012B0DD1084B1B78002B09D1BD
:100B5C00074A022307CA00F015FD064A022307CAFA
:100B6C0000F010FD00BF80BD4C0100204E010020A4
:100B7C00740100206401002080B500AF1B4B1B7872
:100B8C00012B31D11A4B1B78002B2DD1194B1B8803
:100B9C00632B17D9174B00221A80174B1B78012B8C
:100BAC0009D9154B00221A70114B01221A700F4BE8
:100BBC0001221A700CE0104B1B780133DAB20E4B89
:100BCC001A7005E00B4B1B8801339AB2094B1A8043
:100BDC000020FFF7B5FA0346002B05D0034B022289
:100BEC001A70064B00221A7000BF80BD4C01002009
:100BFC004E01002050010020520100204D01002028
:100C0C0080B500AF184B1B78012B2BD1174B1B78E1
:100C1C00012B27D1164B1B78002B17D0154B1B78AB
:100C2C00002B06D1134B01221A70134B00221A70A1
:100C3C0009E0114B1B78002B05D10F4B01221A70C8
:100C4C000C4B00221A700A4B00221A70094B1B78AD
:100C5C000A4A07CA00F052FC074B1B78084A07CA1D
:100C6C0000F04CFC00BF80BD4C0100204E01002068
:100C7C005B0000204F0100204E000020740100207A
:100C8C006401002080B500AF154B1B78012B25D1DA
:100C9C00144B1B78012B21D10020FFF751FA03468E
:100CAC00002B06D00E4B02221A700F4B00221A702A
:100CBC0014E00120FFF744FA0346002B0ED00B4B37
:100CCC0001221A70064B01221A70064B00221A7070
:100CDC00074B00221A70074B00221A8000BF80BD00
:100CEC004C0100204E0100204D0100205B00002033
:100CFC00520100205001002080B500AF834B1B78BF
:100D0C00002B40F00081824B1B78022B54D0022B1D
:100D1C0079DC002B02D0012B27D074E07D4A002314
:100D2C0007CA00F0EBFB7C4B1B78002B14D17B4BE0
:100D3C001A78794B1A70774A012307CA00F0DEFB48
:100D4C00774B1B785A1ED1B2754A1170754A1370C5
:100D5C006F4B01221A7056E06F4B1B785A1ED1B2A2
:100D6C006D4A11706F4A13704DE06A4A012307CA2D
:100D7C0000F0C4FB6A4B1B78002B14D16A4B1A7819
:100D8C00674B1A70634A022307CA00F0B7FB674B24
:100D9C001B785A1ED1B2654A1170624A13705C4BB3
:100DAC0002221A702FE05E4B1B785A1ED1B25C4A9D
:100DBC0011705C4A137026E0564A022307CA00F0F1
:100DCC009DFB5A4B1B78002B14D1594B1A78574B5F
:100DDC001A70504A002307CA00F090FB4E4B1B7848
:100DEC005A1ED1B24C4A11704E4A1370484B002215
:100DFC001A7008E04D4B1B785A1ED1B24B4A117039
:100E0C00484A137000BF4B4B1B78022B54D0022B5B
:100E1C007ADC002B02D0012B27D075E0464A002348
:100E2C0007CA00F06BFB454B1B78002B14D13B4BD6
:100E3C001A78424B1A70404A012307CA00F05EFB35
:100E4C003F4B1B785A1ED1B23D4A1170354A537034
:100E5C00384B01221A7057E0384B1B785A1ED1B20E
:100E6C00364A11702F4A53704EE0334A012307CA99
:100E7C0000F044FB324B1B78002B14D12A4B1A7810
:100E8C002F4B1A702C4A022307CA00F037FB2D4B4C
:100E9C001B785A1ED1B22B4A1170224A5370254B23
:100EAC0002221A7030E0264B1B785A1ED1B2244A0B
:100EBC0011701C4A537027E01F4A022307CA00F026
:100ECC001DFB204B1B78002B14D1194B1A781D4B92
:100EDC001A70194A002307CA00F010FB174B1B7835
:100EEC005A1ED1B2154A11700E4A5370114B002282
:100EFC001A7009E0134B1B785A1ED1B2114A1170AB
:100F0C00084A537000E000BF00BF80BD4C010020B8
:100F1C004F010020740100205500002052000020D9
:100F2C0057000020800100205400002056000020B3
:100F3C00530000204E0000206401002058000020C7
:100F4C005A0000205900002080B500AF0B4B1B78D5
:100F5C00002B11D10020FFF7F3F80346002B0BD028
:100F6C00064B01221A70064B00221A70054B002208
:100F7C001A70054B00221A8000BF80BD4C01002066
:100F8C004E010020520100205001002080B586B097
:100F9C0002AF0346FB71FB7923F00F03FB73FB7964
:100FAC001B01BB73FB7B43F00C03DBB23B72FB7B83
:100FBC0043F00803DBB27B72BB7B43F00C03DBB268
:100FCC00BB72BB7B43F00803DBB2FB7207F1080278
:100FDC006423009304234221034801F00DFC00BF5D
:100FEC001037BD4680BD00BFCC01002080B586B057
:100FFC0002AF0346FB71FB7923F00F03FB73FB7904
:10100C001B01BB73FB7B43F00D03DBB23B72FB7B21
:10101C0043F00903DBB27B72BB7B43F00D03DBB205
:10102C00BB72BB7B43F00903DBB2FB7207F1080216
:10103C006423009304234221034801F0DDFB00BF2D
:10104C001037BD4680BD00BFCC01002080B500AF7D
:10105C003320FFF79BFF3220FFF798FF322000F080
:10106C00A1FF2820FFF792FF322000F09BFF012008
:10107C00FFF78CFF322000F095FF0620FFF786FF6C
:10108C00322000F08FFF0C20FFF780FF322000F0A1
:10109C0089FF0220FFF77AFF322000F083FF8020C7
:1010AC00FFF774FF00BF80BD80B582B000AF7860E1
:1010BC0006E07B685A1C7A601B781846FFF796FF8F
:1010CC007B681B78002BF4D100BF00BF0837BD46EE
:1010DC0080BD80B584B000AF786039607B68002B30
:1010EC0004D13B68DBB2803BFB730BE07B68012BCC
:1010FC0004D13B68DBB2403BFB7303E03B68DBB2E3
:10110C00803BFB73FB7B1846FFF740FF00BF10379B
:10111C00BD4680BD80B582B000AF0346FB71FB7944
:10112C00092B06D8FB793033DBB21846FFF75EFF8C
:10113C001AE0FB790E4AA2FB0323DB08DBB2303347
:10114C00DBB21846FFF752FFFA79094BA3FB0213E7
:10115C00D9080B469B000B445B00D31ADBB230332F
:10116C00DBB21846FFF742FF00BF0837BD4680BD13
:10117C00CDCCCCCC80B500AF3C4B1B78002B72D1C6
:10118C0000210020FFF7A5FF3948FFF78DFF002154
:10119C000120FFF79EFF374B1B78022B13D0022B3D
:1011AC002BDC002B02D0012B1AD026E03248FFF7A3
:1011BC007BFF03210120FFF78CFF304B1B78184677
:1011CC00FFF7A8FF19E02E48FFF76EFF032101205F
:1011DC00FFF77FFF294B1B781846FFF79BFF0CE0AE
:1011EC002848FFF761FF03210120FFF772FF234B13
:1011FC001B781846FFF78EFF00BF08210120FFF770
:10120C0068FF214B1B78022B13D0022B2CDC002BFC
:10121C0002D0012B1AD027E01748FFF745FF0B210E
:10122C000120FFF756FF154B5B781846FFF772FF4E
:10123C001AE01348FFF738FF0B210120FFF749FF95
:10124C000E4B5B781846FFF765FF0DE00D48FFF776
:10125C002BFF0B210120FFF73CFF084B5B78184656
:10126C00FFF758FF00E000BF80BD00BF4C0100201D
:10127C00B04000084F010020BC4000088001002055
:10128C00C0400008C44000084E00002080B500AFEC
:10129C00244B1B78012B43D100210020FFF719FFB1
:1012AC002148FFF701FF214B1B78002B02D0012BAB
:1012BC0014D036E000210120FFF70BFF1C48FFF78C
:1012CC00F3FE03210120FFF704FF1A4B1B78C3F137
:1012DC000303DBB21846FFF71DFF22E000210120BB
:1012EC00FFF7F7FE144B1B78002B02D0012B0BD011
:1012FC0017E01248FFF7D8FE08210120FFF7E9FE9E
:10130C000F48FFF7D1FE0AE00D48FFF7CDFE08218C
:10131C000120FFF7DEFE0948FFF7C6FE00BF00E024
:10132C0000BF80BD4C010020C84000084E010020C9
:10133C00C0400008520100204F010020D44000089A
:10134C00D840000880B500AF2B4B1B78022B50D136
:10135C0000210020FFF7BDFE2848FFF7A5FE002165
:10136C000120FFF7B6FE2648FFF79EFE0321012061
:10137C00FFF7AFFE234B1B78022B0ED0022B10DC99
:10138C00002B02D0012B04D00BE01F48FFF78CFE82
:10139C0007E01E48FFF788FE03E01D48FFF784FEB8
:1013AC0000BF08210120FFF794FE1A48FFF77CFECE
:1013BC000B210120FFF78DFE124B1B78022B12D054
:1013CC00022B17DC002B02D0012B06D012E0124BA3
:1013DC001B781846FFF79EFE0CE0104B1B78184646
:1013EC00FFF798FE06E00E4B1B781846FFF792FEAF
:1013FC0000E000BF80BD00BF4C010020DC400008B5
:10140C00E84000084D010020EC400008F0400008C6
:10141C00F4400008F84000084F0000205000002065
:10142C005100002080B500AF134B1B78032B21D14A
:10143C0000210020FFF74DFE1048FFF735FE00217C
:10144C000120FFF746FE0E4B1B78022B0ED0022B11
:10145C0011DC002B02D0012B04D00CE00948FFF763
:10146C0023FE08E00848FFF71FFE04E00748FFF7DB
:10147C001BFE00E000BF80BD4C010020FC400008BA
:10148C007001002008410008144100081C410008AC
:10149C0080B500AF00210020FFF71BFE0948FFF7C5
:1014AC0003FE00210120FFF714FE0648FFF7FCFDA8
:1014BC00FFF760FEFFF7EAFEFFF744FFFFF7B2FF0E
:1014CC0000BF80BD2441000880B485B000AFF86037
:1014DC007B600B467B8113463B81FB687A891A80C3
:1014EC00FB683A895A80FB687A685A60FB68BA696B
:1014FC009A6000BF1437BD4680BC704790B585B06C
:10150C0000AF3C1D84E80700FB70BB68B988002263
:10151C00184601F014F8FB68F9880022184601F00F
:10152C000EF8FB78002B0CD1BB68B9880122184649
:10153C0001F005F8FB68F9880122184600F0FFFF5E
:10154C001BE0FB78022B0CD1BB68B9880122184632
:10155C0000F0F5FFFB68F9880022184600F0EFFF59
:10156C000BE0BB68B9880022184600F0E8FFFB6866
:10157C00F9880122184600F0E2FF00BF1437BD467F
:10158C0090BD000090B585B000AF3C1D84E807000D
:10159C00FB700D4B1B78002B0CD0BB68B98800225C
:1015AC00184600F0CCFFFB68F9880022184600F0C2
:1015BC00C6FF04E0FB783A1D07CAFFF79FFF00BF88
:1015CC001437BD4690BD00BF5C00002080B400AF56
:1015DC00054B1B78C3F10103DAB2034B1A7000BF41
:1015EC00BD4680BC704700BF5C00002080B582B057
:1015FC0002AF00F075FC00F0A1F800F055F900F016
:10160C00D9F800F005F9384802F098F800F0BAF96A
:10161C00FFF71CFD354B0093344B08222021344836
:10162C00FFF752FF314B0093304B10224FF4806187
:10163C003048FFF749FF0A2200212F4800F01EFA1C
:10164C000A2201212D4800F019FA0A2201212C4806
:10165C0000F014FA0A2201212A4800F00FFA0A229B
:10166C000121294800F00AFA0A220121274800F03A
:10167C0005FA0A220121264800F000FA0A2201216B
:10168C00244800F0FBF94FF47A720321224800F051
:10169C00F5F9FA220321214800F0F0F9FA2203218E
:1016AC001F4800F0EBF9FA2203211E4800F0E6F97E
:1016BC00FA2203211C4800F0E1F9FA2203211B480D
:1016CC0000F0DCF9FA220321194800F0D7F9FA22CC
:1016DC000321184800F0D2F964220521164800F0C5
:1016EC00CDF900F04BFAFCE720020020000C014081
:1016FC007401002064010020AD020008550F0008A1
:10170C00850B0008910C000805050008C9060008A7
:10171C00A5080008750A0008050D0008D915000871
:10172C00490B00080D0C0008C90400088D060008C0
:10173C0069080008450A00089D14000880B590B09F
:10174C0000AF07F1180328220021184602F0D2FB43
:10175C003B1D00221A605A609A60DA601A610223FB
:10176C00BB610123BB621023FB6200237B6307F187
:10177C001803184601F098FB0346002B01D000F02B
:10178C00FBF80F237B600023BB600023FB6000236E
:10179C003B6100237B613B1D0021184601F004FED8
:1017AC000346002B01D000F0E7F800BF4037BD46E0
:1017BC0080BD000080B500AF124B134A1A60114B6C
:1017CC00124A5A600F4B00229A600E4B0022DA60CC
:1017DC000C4B4FF480421A610A4B00225A61094BA0
:1017EC0000229A61074B0022DA61064B00221A6232
:1017FC00044800F0BDFE0346002B01D000F0BCF8FD
:10180C0000BF80BDCC01002000540040A086010028
:10181C0080B586B000AF07F1080300221A605A6049
:10182C009A60DA603B4600221A605A601D4B4FF0FA
:10183C0080421A601B4B40F21F325A60194B002237
:10184C009A60184B0922DA60164B00221A61154B6C
:10185C0000229A61134801F021FF0346002B01D0AE
:10186C0000F08AF84FF48053BB6007F10803194667
:10187C000C4802F0A5F80346002B01D000F07CF8D0
:10188C0000233B6000237B603B461946054802F071
:10189C0087FA0346002B01D000F06EF800BF183712
:1018AC00BD4680BD2002002080B588B000AF07F196
:1018BC00100300221A605A609A60DA602A4B9B6906
:1018CC00294A43F008039361274B9B6903F00803F3
:1018DC00FB60FB68244B9B69234A43F01003936124
:1018EC00214B9B6903F01003BB60BB681E4B9B69CB
:1018FC001D4A43F0040393611B4B9B6903F00403E3
:10190C007B607B6800224FF48761184800F017FE5B
:10191C004FF487633B6101237B610023BB6102238E
:10192C00FB6107F110031946104800F06DFC802391
:10193C003B6100237B610023BB6107F11003194657
:10194C000B4800F061FC4FF440733B6100237B615A
:10195C000023BB6107F110031946064800F054FC44
:10196C0000BF2037BD4680BD00100240000C014076
:10197C00001001400008014080B400AF72B600BFF7
:10198C00FEE7000080B400AF044B00221A60034B4A
:10199C0000225A6000BFBD4680BC70476802002020
:1019AC0080B400AF054B1B680133044A1360034B32
:1019BC001B681846BD4680BC704700BF5401002010
:1019CC0080B586B000AFF860B9607A60182002F07C
:1019DC0081FA03467B617B69002B01D100231AE05D
:1019EC007B69FA681A607B69BA689A607B697A6865
:1019FC00DA60BB68002B0CBF01230023DBB21A4654
:101A0C007B691A74FFF7CCFF02467B695A617B69CC
:101A1C0000225A607B6918461837BD4680BD00000D
:101A2C0080B400AF0F4B1B68002B09D00D4B1B680B
:101A3C009B68002B04D00B4B1B689A68013A9A6088
:101A4C00084B1B68002B08D0064B1B689B68002BAF
:101A5C0003D1044B1B6801221A7400BFBD4680BC25
:101A6C00704700BF6802002080B582B000AF78607C
:101A7C00FFF7D6FF00BF0837BD4680BD80B58CB0E0
:101A8C0000AFF860B9607A60FB68002B03D03A4B6A
:101A9C005B68132B01D9002369E07A68B968F86890
:101AAC00FFF78EFF38623B6A002B01D100235EE00A
:101ABC00314B1B68002B0AD12F4A3B6A13602E4B0B
:101ACC005B6801332C4A53603B6A5B694FE02A4BDD
:101ADC001B68FB620023BB6200237B6233E0FB6A62
:101AEC009B687A6A13447B627A6ABB689A4225D9EE
:101AFC00FB6A9A687B6AD31ABA681344BB617A6A28
:101B0C00BB68D31A7B613B6ABA699A60FB6A7A69D3
:101B1C009A603B6AFA6A5A60BB6A002B03D1164A78
:101B2C003B6A136002E0BB6A3A6A5A60124B5B680C
:101B3C000133114A53603B6A5B6918E0FB6ABB6274
:101B4C00FB6A5B68FB62FB6A002BC8D1BA687B6AD4
:101B5C00D31AFB613B6AFA699A60BB6A3A6A5A60AB
:101B6C00054B5B680133044A53603B6A5B6918465A
:101B7C003037BD4680BD00BF6802002080B584B000
:101B8C0000AF1A4B1B68002B2BD0184B1B68FB604B
:101B9C001FE0FB681B689847FB6800221A74FB68FF
:101BAC001B68BB60FB68DB687B60FB685B693B6048
:101BBC00FB685B68FB60386800F01AF80346002B82
:101BCC0007D07B68002B04D07A687968B868FFF777
:101BDC0055FFFB68002B05D0FB689B68002BD8D009
:101BEC0000E000BF1037BD4680BD00BF680200207A
:101BFC0080B584B000AF78607B68002B03D01A4BA3
:101C0C001B68002B01D1002329E0174B1B68FB60DC
:101C1C000023BB601FE0FB685B697A689A4215D1B0
:101C2C00BB68002B04D1FB685B680F4A136003E0B0
:101C3C00FB685A68BB685A60F86802F053F90A4BA3
:101C4C005B68013B084A5360012308E0FB68BB60FA
:101C5C00FB685B68FB60FB68002BDCD1002318463B
:101C6C001037BD4680BD00BF6802002080B485B02F
:101C7C0000AF154B9B69144A43F001039361124B5F
:101C8C009B6903F00103BB60BB680F4BDB690E4A19
:101C9C0043F08053D3610C4BDB6903F080537B60C2
:101CAC007B680A4B5B68FB60FB6823F0E063FB60BE
:101CBC00FB6843F00073FB60044AFB68536000BF91
:101CCC001437BD4680BC7047001002400000014034
:101CDC0080B58AB000AF786007F1140300221A6057
:101CEC005A609A60DA607B681B681D4A934232D155
:101CFC001C4B9B691B4A43F008039361194B9B696E
:101D0C0003F008033B613B694FF440737B61122382
:101D1C00BB6103233B6207F114031946124800F020
:101D2C0073FA124B5B687B627B6A43F0E0637B6205
:101D3C007B6A43F002037B620C4A7B6A5360094B5B
:101D4C00DB69084A43F40013D361064BDB6903F4E7
:101D5C000013FB60FB6800BF2837BD4680BD00BF89
:101D6C000054004000100240000C014000000140F3
:101D7C0080B584B000AF78607B681B68B3F1804F8E
:101D8C0013D10C4BDB690B4A43F00103D361094BB4
:101D9C00DB6903F00103FB60FB68002200211C20BF
:101DAC0000F0FBF91C2000F014FA00BF1037BD4600
:101DBC0080BD00BF0010024080B400AFFEE780B4CD
:101DCC0000AFFEE780B400AFFEE780B400AFFEE7E3
:101DDC0080B400AFFEE780B400AF00BFBD4680BC4E
:101DEC00704780B400AF00BFBD4680BC704780B464
:101DFC0000AF00BFBD4680BC704780B500AF00F09F
:101E0C00B5F800BF80BD000080B500AF024801F0FE
:101E1C00E7FC00BF80BD00BF2002002080B586B06B
:101E2C0000AF7860144A154BD31A7B617B693B6118
:101E3C00134B1B68002B02D1114B124A1A60104B2A
:101E4C001A687B6813443A699A4207D202F018F870
:101E5C0003460C221A604FF0FF3309E0084B1B6855
:101E6C00FB60074B1A687B681344054A1360FB68D8
:101E7C0018461837BD4680BD0050002000040000F5
:101E8C00580100208802002080B400AF00BFBD467E
:101E9C0080BC7047FFF7F8FF0B480C490C4A002335
:101EAC0002E0D458C4500433C4188C42F9D3094A04
:101EBC00094C002301E013600432A242FBD301F071
:101ECC00E5FFFFF793FB704700000020D0000020D7
:101EDC006C410008D000002084020020FEE70000C6
:101EEC0080B500AF084B1B68074A43F01003136022
:101EFC00032000F047F90F2000F008F8FFF7B6FEBA
:101F0C000023184680BD00BF0020024080B582B07F
:101F1C0000AF7860124B1A68124B1B7819464FF4BD
:101F2C007A73B3FBF1F3B2FBF3F3184600F05FF9ED
:101F3C000346002B01D001230EE07B680F2B0AD83F
:101F4C00002279684FF0FF3000F027F9064A7B68D1
:101F5C001360002300E0012318460837BD4680BDFE
:101F6C0060000020680000206400002080B400AFF6
:101F7C00054B1B781A46054B1B681344034A136028
:101F8C0000BFBD4680BC7047680000207002002076
:101F9C0080B400AF024B1B681846BD4680BC70472E
:101FAC007002002080B584B000AF7860FFF7F0FFBE
:101FBC00B8607B68FB60FB68B3F1FF3F05D00A4B50
:101FCC001B781A46FB681344FB6000BFFFF7E0FF69
:101FDC000246BB68D31AFA689A42F7D800BF00BF12
:101FEC001037BD4680BD00BF6800002080B485B0AE
:101FFC0000AF78607B6803F00703FB600C4BDB6879
:10200C00BB60BA684FF6FF031340BB60FB681A0253
:10201C00BB68134343F0BF6343F40033BB60044A13
:10202C00BB68D36000BF1437BD4680BC704700BF8F
:10203C0000ED00E080B400AF044BDB681B0A03F03A
:10204C0007031846BD4680BC704700BF00ED00E09A
:10205C0080B483B000AF0346FB7197F90730002BB7
:10206C000BDBFB7903F01F02064997F907305B097C
:10207C00012000FA02F241F8232000BF0C37BD46C4
:10208C0080BC704700E100E080B483B000AF034631
:10209C003960FB7197F90730002B0ADB3B68DAB229
:1020AC000C4997F907301201D2B20B4483F8002384
:1020BC000AE03B68DAB20849FB7903F00F03043BF2
:1020CC001201D2B20B441A7600BF0C37BD4680BC4D
:1020DC00704700BF00E100E000ED00E080B489B083
:1020EC0000AFF860B9607A60FB6803F00703FB612E
:1020FC00FB69C3F10703042B28BF0423BB61FB69F5
:10210C000433062B02D9FB69033B00E000237B61FF
:10211C004FF0FF32BB6902FA03F3DA43BB681A4093
:10212C007B699A404FF0FF317B6901FA03F3D94385
:10213C007B680B40134318462437BD4680BC704760
:10214C0080B582B000AF78607B68013BB3F1807FD3
:10215C0001D301230FE00A4A7B68013B53600F2136
:10216C004FF0FF30FFF790FF054B00229A60044BB5
:10217C0007221A60002318460837BD4680BD00BFF1
:10218C0010E000E080B582B000AF78607868FFF7AF
:10219C002DFF00BF0837BD4680BD80B586B000AFAF
:1021AC000346B9607A60FB7300237B61FFF742FF43
:1021BC0078617A68B9687869FFF790FF024697F9F9
:1021CC000F3011461846FFF75FFF00BF1837BD46AA
:1021DC0080BD80B582B000AF0346FB7197F9073024
:1021EC001846FFF735FF00BF0837BD4680BD80B5E8
:1021FC0082B000AF78607868FFF7A2FF03461846FC
:10220C000837BD4680BD000080B48BB000AF78604D
:10221C00396000237B6200233B6269E101227B6A07
:10222C0002FA03F3FB613B681B68FA691340BB615C
:10223C00BA69FB699A4240F058813B685B689A4ADC
:10224C0093425ED0984A934275D8984A934258D09C
:10225C00964A93426FD8964A934252D0944A9342EC
:10226C0069D8944A93424CD0924A934263D8924A8A
:10227C00934246D0904A93425DD8122B2AD8122B07
:10228C0059D801A252F823F00F230008E9220008C4
:10229C00FB2200083D2300084323000843230008C9
:1022AC00432300084323000843230008432300086A
:1022BC00432300084323000843230008432300085A
:1022CC00432300084323000843230008F12200089D
:1022DC0005230008794A934213D02CE03B68DB6855
:1022EC003B6229E03B68DB6804333B6224E03B68DB
:1022FC00DB6808333B621FE03B68DB680C333B62F6
:10230C001AE03B689B68002B02D104233B6213E06C
:10231C003B689B68012B05D108233B627B68FA69FB
:10232C001A6109E008233B627B68FA695A6103E091
:10233C0000233B6200E000BFBB69FF2B01D87B6828
:10234C0001E07B6804337B61BB69FF2B02D87B6A9D
:10235C009B0002E07B6A083B9B003B617B691A682F
:10236C000F213B6901FA03F3DB431A40396A3B69DD
:10237C0001FA03F31A437B691A603B685B6803F04C
:10238C008053002B00F0B1804D4B9B694C4A43F0BD
:10239C00010393614A4B9B6903F00103BB60BB686B
:1023AC00484A7B6A9B08023352F82330FB607B6AF5
:1023BC0003F003039B000F2202FA03F3DB43FA68DA
:1023CC001340FB607B68404A934213D07B683F4AC2
:1023DC0093420DD07B683E4A934207D07B683D4ABE
:1023EC00934201D1032306E0042304E0022302E01C
:1023FC00012300E000237A6A02F00302920093406A
:10240C00FA681343FB602F497B6A9B080233FA6816
:10241C0041F823203B685B6803F48013002B06D043
:10242C002D4B9A682C49BB6913438B6006E02A4BF1
:10243C009A68BB69DB43284913408B603B685B6837
:10244C0003F40013002B06D0234BDA682249BB6936
:10245C001343CB6006E0204BDA68BB69DB431E49B3
:10246C001340CB603B685B6803F40033002B06D051
:10247C00194B5A681849BB6913434B6006E0164B5D
:10248C005A68BB69DB43144913404B603B685B687B
:10249C0003F48033002B21D00F4B1A680E49BB6913
:1024AC0013430B6021E000BF00003210000031101C
:1024BC00000022100000211000001210000011106A
:1024CC00001002400000014000080140000C0140D7
:1024DC000010014000140140000401400B4B1A682D
:1024EC00BB69DB43094913400B607B6A01337B6298
:1024FC003B681A687B6A22FA03F3002B7FF48EAEDA
:10250C0000BF00BF2C37BD4680BC704700040140A3
:10251C0080B485B000AF78600B467B807B689A688E
:10252C007B881340002B02D00123FB7301E00023B6
:10253C00FB73FB7B18461437BD4680BC704780B4D8
:10254C0083B000AF78600B467B8013467B707B7842
:10255C00002B03D07A887B681A6103E07B881A040D
:10256C007B681A6100BF0C37BD4680BC7047000009
:10257C0080B584B000AF78607B68002B01D101235B
:10258C002BE17B6893F83D30DBB2002B06D17B68E6
:10259C00002283F83C207868FFF79AFB7B682422A2
:1025AC0083F83D207B681B681A687B681B6822F0E7
:1025BC0001021A607B681B681A687B681B6842F40E
:1025CC0000421A607B681B681A687B681B6822F4DF
:1025DC0000421A6001F030F8F8607B685B68814A51
:1025EC00934207D8FB68804A934294BF012300238F
:1025FC00DBB206E0FB687D4A934294BF01230023C3
:10260C00DBB2002B01D00123E7E0FB68784AA2FB88
:10261C0003239B0CBB607B681B685B6823F03F014A
:10262C007B681B68BA680A435A607B681B681B6A24
:10263C0023F03F017B685B686A4A934202D8BB680F
:10264C00013309E0BB684FF4967202FB03F3694A4D
:10265C00A2FB03239B0901337A6812680B431362B4
:10266C007B681B68DB6923F44F4222F0FF027B6816
:10267C005B685C498B4219D8FB68591E7B685B68A8
:10268C005B00B1FBF3F3591C40F6FC730B40002BC1
:10269C000AD0FB68591E7B685B685B00B1FBF3F3E7
:1026AC000133C3F30B0351E004234FE07B689B68B9
:1026BC00002B11D1FB68581E7B6859680B465B00D8
:1026CC000B44B0FBF3F30133C3F30B03002B0CBF30
:1026DC0001230023DBB212E0FB68581E7B685968AB
:1026EC000B469B000B4499000B44B0FBF3F30133F6
:1026FC00C3F30B03002B0CBF01230023DBB2002B15
:10270C0001D0012322E07B689B68002B0ED1FB6873
:10271C00581E7B6859680B465B000B44B0FBF3F307
:10272C000133C3F30B0343F400430FE0FB68581E63
:10273C007B6859680B469B000B4499000B44B0FB1B
:10274C00F3F30133C3F30B0343F440437968096893
:10275C001343CB617B681B681B6823F0C0017B684B
:10276C00DA697B681B6A1A437B681B680A431A6028
:10277C007B681B689B6823F4034323F0FF037A6890
:10278C0011697A68D26811437A6812680B439360B6
:10279C007B681B68DB6823F0FF017B685A697B68E8
:1027AC009B691A437B681B680A43DA607B681B6869
:1027BC001A687B681B6842F001021A607B68002271
:1027CC001A647B68202283F83D207B6800221A6300
:1027DC007B68002283F83E20002318461037BD4644
:1027EC0080BD00BFA08601007F841E00FF083D0055
:1027FC0083DE1B43D34D621080B588B002AFF86006
:10280C007A601A460B467B8113463B81FFF7C0FB6F
:10281C007861FB6893F83D30DBB2202B40F0E08010
:10282C007B690093192301227049F86800F064F960
:10283C000346002B01D00223D3E0FB6893F83C3015
:10284C00012B01D10223CCE0FB68012283F83C2050
:10285C00FB681B681B6803F00103012B07D0FB68A6
:10286C001B681A68FB681B6842F001021A60FB685F
:10287C001B681A68FB681B6822F400621A60FB680C
:10288C00212283F83D20FB68102283F83E20FB6850
:10289C0000221A64FB687A685A62FB683A895A8586
:1028AC00FB685B8D9AB2FB681A85FB68504ADA624A
:1028BC0079897B693A6AF86800F09CF80346002B2A
:1028CC0001D001238DE000233B61FB681B685B6931
:1028DC003B61FB681B689B693B613B6966E07A69FD
:1028EC00396AF86800F022FA0346002B0DD0FB6819
:1028FC001B6C042B07D1FB681B681A68FB681B68F0
:10290C0042F400721A6001236BE0FB685B6A1A7870
:10291C00FB681B681A61FB685B6A5A1CFB685A628D
:10292C00FB685B8D9BB2013B9AB2FB685A85FB68D6
:10293C001B8D013B9AB2FB681A85FB681B685B69AF
:10294C0003F00403042B1BD1FB681B8D002B17D049
:10295C00FB685B6A1A78FB681B681A61FB685B6A28
:10296C005A1CFB685A62FB685B8D9BB2013B9AB2A6
:10297C00FB685A85FB681B8D013B9AB2FB681A8574
:10298C007A69396AF86800F019FA0346002B0DD001
:10299C00FB681B6C042B07D1FB681B681A68FB686F
:1029AC001B6842F400721A6001231AE0FB681B8D4D
:1029BC00002B94D1FB681B681A68FB681B6842F4F7
:1029CC0000721A60FB68202283F83D20FB6800220D
:1029DC0083F83E20FB68002283F83C20002300E0B3
:1029EC00022318461837BD4680BD00BF02001000F8
:1029FC000000FFFF80B588B002AFF8607A603B60E2
:102A0C000B467B81FB68DB6A7B617B69082B06D0FC
:102A1C007B69012B03D07B6913F5803F08D1FB68E0
:102A2C001B681A68FB681B6842F480721A600BE022
:102A3C00FB681B6B122B07D1FB681B681A68FB68C1
:102A4C001B6842F480721A603B6800937B6800221A
:102A5C004FF00111F86800F04FF80346002B0DD031
:102A6C00FB681B681B6803F48073B3F5807F03D18C
:102A7C00FB684FF400721A64032335E0FB681B6992
:102A8C00B3F5804F08D17B89DBB21A46FB681B6813
:102A9C0002F0FE021A611BE07B89DB11DBB203F052
:102AAC000603DBB263F00F03DAB2FB681B681A6132
:102ABC003B687A680E49F86800F098F80346002BDA
:102ACC0001D0012310E07B89DAB2FB681B681A6124
:102ADC003B687A680749F86800F088F80346002BD1
:102AEC0001D0012300E0002318461837BD4680BDF5
:102AFC00080001000200010080B584B000AFF8604E
:102B0C00B9603B601346FB7148E03B68B3F1FF3F93
:102B1C0044D0FFF73DFA0246BB69D31A3A689A4291
:102B2C0002D33B68002B39D1BB681B0CDBB2012BE9
:102B3C000DD1FB681B685B69DA43BB6813409BB221
:102B4C00002B0CBF01230023DBB21A460CE0FB6800
:102B5C001B689B69DA43BB6813409BB2002B0CBF0C
:102B6C0001230023DBB21A46FB799A4216D1FB688B
:102B7C0000221A63FB68202283F83D20FB680022A8
:102B8C0083F83E20FB681B6C43F02002FB681A6440
:102B9C00FB68002283F83C20012323E0BB681B0C5C
:102BAC00DBB2012B0DD1FB681B685B69DA43BB6898
:102BBC0013409BB2002B0CBF01230023DBB21A463F
:102BCC000CE0FB681B689B69DA43BB6813409BB243
:102BDC00002B0CBF01230023DBB21A46FB799A426F
:102BEC0093D0002318461037BD4680BD80B584B005
:102BFC0000AFF860B9607A603B6071E0FB681B68FD
:102C0C005B6903F48063B3F5806F23D1FB681B68A9
:102C1C001A68FB681B6842F400721A60FB681B6838
:102C2C006FF480625A61FB6800221A63FB682022F1
:102C3C0083F83D20FB68002283F83E20FB681B6C68
:102C4C0043F00402FB681A64FB68002283F83C2002
:102C5C00012367E07B68B3F1FF3F41D0FFF798F9A0
:102C6C0002463B68D31A7A689A4202D37B68002BDF
:102C7C0036D1BB681B0CDBB2012B0CD1FB681B687B
:102C8C005B69DA43BB6813409BB2002B14BF012372
:102C9C000023DBB20BE0FB681B689B69DA43BB6863
:102CAC0013409BB2002B14BF01230023DBB2002B7B
:102CBC0016D0FB6800221A63FB68202283F83D20A3
:102CCC00FB68002283F83E20FB681B6C43F020025B
:102CDC00FB681A64FB68002283F83C20012321E086
:102CEC00BB681B0CDBB2012B0CD1FB681B685B694E
:102CFC00DA43BB6813409BB2002B14BF01230023A3
:102D0C00DBB20BE0FB681B689B69DA43BB681340C2
:102D1C009BB2002B14BF01230023DBB2002B7FF4EA
:102D2C006DAF002318461037BD4680BD80B584B00A
:102D3C0000AFF860B9607A6034E0F86800F086F8AB
:102D4C000346002B01D0012334E0BB68B3F1FF3FF5
:102D5C0028D0FFF71DF902467B68D31ABA689A424D
:102D6C0002D3BB68002B1DD1FB681B685B6903F0A9
:102D7C008003802B16D0FB6800221A63FB6820228C
:102D8C0083F83D20FB68002283F83E20FB681B6C17
:102D9C0043F02002FB681A64FB68002283F83C2095
:102DAC00012307E0FB681B685B6903F08003802B41
:102DBC00C3D1002318461037BD4680BD80B584B002
:102DCC0000AFF860B9607A6034E0F86800F03EF863
:102DDC000346002B01D0012334E0BB68B3F1FF3F65
:102DEC0028D0FFF7D5F802467B68D31ABA689A4206
:102DFC0002D3BB68002B1DD1FB681B685B6903F019
:102E0C000403042B16D0FB6800221A63FB682022F3
:102E1C0083F83D20FB68002283F83E20FB681B6C86
:102E2C0043F02002FB681A64FB68002283F83C2004
:102E3C00012307E0FB681B685B6903F00403042BA8
:102E4C00C3D1002318461037BD4680BD80B483B073
:102E5C0000AF78607B681B685B6903F48063B3F533
:102E6C00806F1BD17B681B686FF480625A617B6832
:102E7C0000221A637B68202283F83D207B680022A5
:102E8C0083F83E207B681B6C43F004027B681A6459
:102E9C007B68002283F83C20012300E000231846C5
:102EAC000C37BD4680BC704780B586B000AF7860EB
:102EBC007B68002B01D101236CE27B681B6803F05B
:102ECC000103002B00F08780924B5B6803F00C032E
:102EDC00042B0CD08F4B5B6803F00C03082B12D126
:102EEC008C4B5B6803F48033B3F5803F0BD1894B7B
:102EFC001B6803F40033002B6CD07B685B68002BE1
:102F0C0068D1012346E27B685B68B3F5803F06D14C
:102F1C00804B1B687F4A43F4803313602EE07B6840
:102F2C005B68002B0CD17B4B1B687A4A23F48033F3
:102F3C001360784B1B68774A23F4802313601DE0E1
:102F4C007B685B68B3F5A02F0CD1724B1B68714A80
:102F5C0043F4802313606F4B1B686E4A43F4803339
:102F6C0013600BE06B4B1B686A4A23F480331360CD
:102F7C00684B1B68674A23F4802313607B685B688B
:102F8C00002B13D0FFF704F8386108E0FFF700F8C6
:102F9C0002463B69D31A642B01D90323FAE15D4B3A
:102FAC001B6803F40033002BF0D014E0FEF7F0FFA5
:102FBC00386108E0FEF7ECFF02463B69D31A642B3C
:102FCC0001D90323E6E1534B1B6803F40033002BB8
:102FDC00F0D100E000BF7B681B6803F00203002BFC
:102FEC0063D04C4B5B6803F00C03002B0BD0494BAC
:102FFC005B6803F00C03082B1CD1464B5B6803F495
:10300C008033002B16D1434B1B6803F00203002BBB
:10301C0005D07B681B69012B01D00123BAE13D4B24
:10302C001B6823F0F8027B685B69DB0039491343AA
:10303C000B603AE07B681B69002B20D0364B0122D9
:10304C001A60FEF7A5FF386108E0FEF7A1FF024603
:10305C003B69D31A022B01D903239BE12D4B1B682F
:10306C0003F00203002BF0D02A4B1B6823F0F8026C
:10307C007B685B69DB00274913430B6015E0264B2B
:10308C0000221A60FEF784FF386108E0FEF780FF2B
:10309C0002463B69D31A022B01D903237AE11D4B5B
:1030AC001B6803F00203002BF0D17B681B6803F054
:1030BC000803002B3AD07B689B69002B19D0174B67
:1030CC0001221A60FEF764FF386108E0FEF760FF2A
:1030DC0002463B69D31A022B01D903235AE10D4B4B
:1030EC005B6A03F00203002BF0D0012000F0B8FA69
:1030FC001CE00A4B00221A60FEF74AFF38610FE011
:10310C00FEF746FF02463B69D31A022B08D903236C
:10311C0040E100BF001002400000424280044242E5
:10312C009E4B5B6A03F00203002BE9D17B681B68A2
:10313C0003F00403002B00F0A6800023FB75974BD3
:10314C00DB6903F08053002B0DD1944BDB69934A60
:10315C0043F08053D361914BDB6903F08053BB6028
:10316C00BB680123FB758E4B1B6803F48073002B2B
:10317C0018D18B4B1B688A4A43F480731360FEF79B
:10318C0007FF386108E0FEF703FF02463B69D31ADC
:10319C00642B01D90323FDE0814B1B6803F480737E
:1031AC00002BF0D07B68DB68012B06D17B4B1B6AB4
:1031BC007A4A43F0010313622DE07B68DB68002B35
:1031CC000CD1764B1B6A754A23F001031362734BC7
:1031DC001B6A724A23F0040313621CE07B68DB68F1
:1031EC00052B0CD16D4B1B6A6C4A43F00403136224
:1031FC006A4B1B6A694A43F0010313620BE0674B8D
:10320C001B6A664A23F001031362644B1B6A634A10
:10321C0023F0040313627B68DB68002B15D0FEF7E8
:10322C00B7FE38610AE0FEF7B3FE02463B69D31ADB
:10323C0041F28832934201D90323ABE0574B1B6A0E
:10324C0003F00203002BEED014E0FEF7A1FE386170
:10325C000AE0FEF79DFE02463B69D31A41F2883222
:10326C00934201D9032395E04C4B1B6A03F00203F4
:10327C00002BEED1FB7D012B05D1484BDB69474A76
:10328C0023F08053D3617B68DB69002B00F08180D5
:10329C00424B5B6803F00C03082B61D07B68DB6945
:1032AC00022B46D13F4B00221A60FEF771FE3861AB
:1032BC0008E0FEF76DFE02463B69D31A022B01D9DA
:1032CC00032367E0354B1B6803F00073002BF0D130
:1032DC007B681B6AB3F5803F08D1304B5B6823F4E5
:1032EC0000327B689B682D4913434B602B4B5B680A
:1032FC0023F474127B68196A7B685B6A0B43274959
:10330C0013434B60274B01221A60FEF741FE3861D4
:10331C0008E0FEF73DFE02463B69D31A022B01D9A9
:10332C00032337E01D4B1B6803F00073002BF0D018
:10333C002FE01C4B00221A60FEF72AFE386108E0D1
:10334C00FEF726FE02463B69D31A022B01D9032352
:10335C0020E0124B1B6803F00073002BF0D118E037
:10336C007B68DB69012B01D1012313E00B4B5B68FC
:10337C00FB60FB6803F480327B681B6A9A4206D1BF
:10338C00FB6803F470127B685B6A9A4201D00123DC
:10339C0000E0002318461837BD4680BD00100240DF
:1033AC00007000406000424280B584B000AF78608D
:1033BC0039607B68002B01D10123D0E06A4B1B687C
:1033CC0003F007033A689A4210D9674B1B6823F045
:1033DC00070265493B6813430B60634B1B6803F0A2
:1033EC0007033A689A4201D00123B8E07B681B6856
:1033FC0003F00203002B20D07B681B6803F004034E
:10340C00002B05D0594B5B68584A43F4E06353607A
:10341C007B681B6803F00803002B05D0534B5B68DB
:10342C00524A43F460535360504B5B6823F0F002F4
:10343C007B689B684D4913434B607B681B6803F0AA
:10344C000103002B40D07B685B68012B07D1474BF5
:10345C001B6803F40033002B15D101237FE07B683C
:10346C005B68022B07D1414B1B6803F00073002BE8
:10347C0009D1012373E03D4B1B6803F00203002BC1
:10348C0001D101236BE0394B5B6823F003027B68AD
:10349C005B68364913434B60FEF77AFDF8600AE02F
:1034AC00FEF776FD0246FB68D31A41F2883293424E
:1034BC0001D9032353E02D4B5B6803F00C027B68AE
:1034CC005B689B009A42EBD1274B1B6803F0070308
:1034DC003A689A4210D2244B1B6823F00702224907
:1034EC003B6813430B60204B1B6803F007033A68DF
:1034FC009A4201D0012332E07B681B6803F004037D
:10350C00002B08D0194B5B6823F4E0627B68DB6806
:10351C00164913434B607B681B6803F00803002BB0
:10352C0009D0124B5B6823F460527B681B69DB008B
:10353C000E4913434B6000F021F802460B4B5B68BD
:10354C001B0903F00F030A49CB5C22FA03F3094A67
:10355C001360094B1B681846FEF7D8FC002318466D
:10356C001037BD4680BD00BF002002400010024055
:10357C0038410008600000206400002080B487B04F
:10358C0000AF0023FB600023BB6000237B610023A2
:10359C007B6000233B611E4B5B68FB60FB6803F0A8
:1035AC000C03042B02D0082B03D027E0194B3B61F2
:1035BC0027E0FB689B0C03F00F03174AD35C7B607E
:1035CC00FB6803F48033002B10D0114B5B685B0C51
:1035DC0003F00103114AD35CBB607B680D4A02FB0C
:1035EC0003F2BB68B2FBF3F37B6104E07B680C4A2B
:1035FC0002FB03F37B617B693B6102E0054B3B61A2
:10360C0000BF3B6918461C37BD4680BC704700BFE5
:10361C000010024000127A0050410008604100087E
:10362C0000093D0080B400AF024B1B681846BD4634
:10363C0080BC70476000002080B500AFFFF7F2FF40
:10364C000246054B5B681B0A03F007030349CB5C7E
:10365C0022FA03F3184680BD0010024048410008CE
:10366C0080B485B000AF78600A4B1B680A4AA2FB95
:10367C0003235B0A7A6802FB03F3FB6000BFFB6861
:10368C005A1EFA60002BF9D100BF00BF1437BD469B
:10369C0080BC704760000020D34D621080B582B0B2
:1036AC0000AF78607B68002B01D1012341E07B687F
:1036BC0093F83D30DBB2002B06D17B68002283F8F7
:1036CC003C207868FEF754FB7B68022283F83D208F
:1036DC007B681A687B6804331946104600F05CFA64
:1036EC007B68012283F846207B68012283F83E2008
:1036FC007B68012283F83F207B68012283F84020FD
:10370C007B68012283F841207B68012283F84220E8
:10371C007B68012283F843207B68012283F84420D4
:10372C007B68012283F845207B68012283F83D20C9
:10373C00002318460837BD4680BD000080B485B014
:10374C0000AF78607B6893F83D30DBB2012B01D081
:10375C0001233AE07B68022283F83D207B681B68DA
:10376C00DA687B681B6842F00102DA607B681B68D0
:10377C00184A93420ED07B681B68B3F1804F09D076
:10378C007B681B68144A934204D07B681B68134AFD
:10379C00934211D17B681B689B6803F00703FB60A5
:1037AC00FB68062B10D07B681B681A687B681B684B
:1037BC0042F001021A6007E07B681B681A687B689C
:1037CC001B6842F001021A60002318461437BD46EC
:1037DC0080BC7047002C01400004004000080040F1
:1037EC0080B584B000AF78607B681B68DB68FB60D9
:1037FC007B681B681B69BB60BB6803F00203002B72
:10380C0020D0FB6803F00203002B1BD07B681B68E5
:10381C006FF002021A617B6801221A777B681B68C1
:10382C009B6903F00303002B03D0786800F098F930
:10383C0005E0786800F08BF9786800F09AF97B68FD
:10384C0000221A77BB6803F00403002B20D0FB681E
:10385C0003F00403002B1BD07B681B686FF0040281
:10386C001A617B6802221A777B681B689B6903F4D8
:10387C004073002B03D0786800F072F905E078688B
:10388C0000F065F9786800F074F97B6800221A770B
:10389C00BB6803F00803002B20D0FB6803F008037F
:1038AC00002B1BD07B681B686FF008021A617B68C9
:1038BC0004221A777B681B68DB6903F00303002B77
:1038CC0003D0786800F04CF905E0786800F03FF917
:1038DC00786800F04EF97B6800221A77BB6803F019
:1038EC001003002B20D0FB6803F01003002B1BD01F
:1038FC007B681B686FF010021A617B6808221A77CC
:10390C007B681B68DB6903F44073002B03D0786879
:10391C0000F026F905E0786800F019F9786800F0F5
:10392C0028F97B6800221A77BB6803F00103002B8F
:10393C000CD0FB6803F00103002B07D07B681B68DD
:10394C006FF001021A617868FEF78EF8BB6803F01D
:10395C008003002B0CD0FB6803F08003002B07D0F6
:10396C007B681B686FF080021A61786800F07FFA40
:10397C00BB6803F04003002B0CD0FB6803F0400342
:10398C00002B07D07B681B686FF040021A617868C7
:10399C0000F0F8F8BB6803F02003002B0CD0FB6898
:1039AC0003F02003002B07D07B681B686FF020020C
:1039BC001A61786800F052FA00BF1037BD4680BD1E
:1039CC0080B584B000AF786039600023FB737B68EE
:1039DC0093F83C30012B01D10223B4E07B68012227
:1039EC0083F83C207B68022283F83D207B681B68AF
:1039FC009B68BB60BB6823F07703BB60BB6823F498
:103A0C007F43BB607B681B68BA689A603B681B6825
:103A1C00B3F5005F3ED0B3F5005F00F28780B3F5DD
:103A2C00805F00F08680B3F5805F7FD8702B1AD052
:103A3C00702B7BD8602B50D0602B77D8502B3CD080
:103A4C00502B73D8402B58D0402B6FD8302B64D0D0
:103A5C00302B6BD8202B60D0202B67D8002B5CD060
:103A6C00102B5AD062E07B6818683B6899683B68F9
:103A7C005A683B68DB6800F074F97B681B689B68CC
:103A8C00BB60BB6843F07703BB607B681B68BA689C
:103A9C009A604FE07B6818683B6899683B685A6885
:103AAC003B68DB6800F05DF97B681B689A687B6893
:103ABC001B6842F480429A603CE07B6818683B6863
:103ACC0059683B68DB681A4600F0D4F87B681B68C1
:103ADC005021184600F02BF92CE07B6818683B68E5
:103AEC0059683B68DB681A4600F0F2F87B681B6883
:103AFC006021184600F01BF91CE07B6818683B68D5
:103B0C0059683B68DB681A4600F0B4F87B681B68A0
:103B1C004021184600F00BF90CE07B681A683B68F2
:103B2C001B681946104600F002F903E00123FB73F1
:103B3C0000E000BF7B68012283F83D207B680022F7
:103B4C0083F83C20FB7B18461037BD4680BD80B403
:103B5C0083B000AF786000BF0C37BD4680BC7047A7
:103B6C0080B483B000AF786000BF0C37BD4680BC1A
:103B7C00704780B483B000AF786000BF0C37BD468F
:103B8C0080BC704780B483B000AF786000BF0C3746
:103B9C00BD4680BC7047000080B485B000AF786033
:103BAC0039607B681B68FB607B682F4A93420BD0A3
:103BBC007B68B3F1804F07D07B682C4A934203D0CB
:103BCC007B682B4A934208D1FB6823F07003FB609F
:103BDC003B685B68FA681343FB607B68224A93423C
:103BEC000BD07B68B3F1804F07D07B681F4A9342A0
:103BFC0003D07B681E4A934208D1FB6823F44073C0
:103C0C00FB603B68DB68FA681343FB60FB6823F0DE
:103C1C0080023B685B691343FB607B68FA681A603F
:103C2C003B689A687B68DA623B681A687B689A62C0
:103C3C007B680D4A934203D13B681A697B681A630F
:103C4C007B6801225A617B681B6903F00103002B1E
:103C5C0005D07B681B6923F001027B681A6100BFE9
:103C6C001437BD4680BC7047002C01400004004056
:103C7C000008004080B487B000AFF860B9607A608B
:103C8C00FB681B6A7B61FB681B6A23F00102FB6803
:103C9C001A62FB689B693B613B6923F0F0033B6153
:103CAC007B681B013A6913433B617B6923F00A0370
:103CBC007B617A69BB6813437B61FB683A699A61E3
:103CCC00FB687A691A6200BF1C37BD4680BC70471E
:103CDC0080B487B000AFF860B9607A60FB681B6A8B
:103CEC007B61FB681B6A23F01002FB681A62FB689D
:103CFC009B693B613B6923F470433B617B681B030D
:103D0C003A6913433B617B6923F0A0037B61BB6879
:103D1C001B017A6913437B61FB683A699A61FB6802
:103D2C007A691A6200BF1C37BD4680BC704780B4EC
:103D3C0085B000AF786039607B689B68FB60FB687E
:103D4C0023F07003FB603A68FB68134343F00703EE
:103D5C00FB607B68FA689A6000BF1437BD4680BC74
:103D6C00704780B487B000AFF860B9607A603B6090
:103D7C00FB689B687B617B6923F47F437B613B68B9
:103D8C001A027B681A43BB6813437A6913437B613D
:103D9C00FB687A699A6000BF1C37BD4680BC7047CF
:103DAC0080B485B000AF786039607B6893F83C30A4
:103DBC00012B01D1022346E07B68012283F83C20D1
:103DCC007B68022283F83D207B681B685B68FB6084
:103DDC007B681B689B68BB60FB6823F07003FB600F
:103DEC003B681B68FA681343FB607B681B68FA68C6
:103DFC005A607B681B68164A93420ED07B681B681E
:103E0C00B3F1804F09D07B681B68124A934204D0EF
:103E1C007B681B68104A93420CD1BB6823F080036B
:103E2C00BB603B685B68BA681343BB607B681B680C
:103E3C00BA689A607B68012283F83D207B68002277
:103E4C0083F83C20002318461437BD4680BC7047CD
:103E5C00002C0140000400400008004080B483B0F6
:103E6C0000AF786000BF0C37BD4680BC704780B493
:103E7C0083B000AF786000BF0C37BD4680BC704784
:103E8C00014B1868704700BF6C00002070B500260D
:103E9C000C4D0D4C641BA410A64209D100F0F6F891
:103EAC0000260A4D0A4C641BA410A64205D170BD15
:103EBC0055F8043B98470136EEE755F8043B984714
:103ECC000136F2E7644100086441000864410008CF
:103EDC0068410008024B0146186800F05FB800BF4B
:103EEC006C000020024B0146186800F00BB800BFB4
:103EFC006C00002003460244934200D1704703F843
:103F0C00011BF9E738B50546002943D051F8043CAC
:103F1C000C1F002BB8BFE41800F0AAF81E4A136857
:103F2C00104633B9636014602846BDE8384000F091
:103F3C00A5B8A3420AD921686218934201BF1A6836
:103F4C005B685218226063600460EDE71A465B6898
:103F5C000BB1A342FAD911685018A0420BD12068BA
:103F6C000144501883421160DED118685B6801442B
:103F7C0011605360D8E702D90C232B60D4E720687A
:103F8C0021188B4201BF19685B68091821606360B6
:103F9C005460C9E738BD00BF5C010020F8B5CD1CEA
:103FAC0025F0030508350C2D38BF0C25002D0646D1
:103FBC0001DBA94203D90C2333600020F8BD00F0CB
:103FCC0057F821490A6814469CB9204F3B6823B91D
:103FDC002146304600F03CF838602946304600F067
:103FEC0037F8431C23D10C233046336000F046F8DD
:103FFC00E3E723685B1B17D40B2B03D923601C440A
:10400C00256004E06368A2420CBF0B60536030462D
:10401C0000F034F804F10B00231D20F00700C21A45
:10402C00CCD01B1AA350C9E722466468CCE7C41C49
:10403C0024F00304A042E3D0211A304600F008F823
:10404C000130DDD1CFE700BF5C0100206001002012
:10405C0038B50023054D044608462B60FDF7DEFEFF
:10406C00431C02D12B6803B1236038BD74020020BD
:10407C00014800F009B800BF7C020020014800F0A4
:10408C0004B800BF7C02002070477047F8B500BF31
:10409C00F8BC08BC9E467047F8B500BFF8BC08BC1D
:0440AC009E46704775
:1040B0004155544F204D4F4445000000523A2000D6
:1040C000593A2000473A20004D414E55414C204D71
:1040D0004F444500523A0000473A0000434F4E46D5
:1040E0004947204D4F4445004D3A20005200000002
:1040F00059000000470000004E3A20004552524F40
:1041000052204D4F444500005220213D2059202B84
:104110002047000052203C3D2059000052203C3DE9
:1041200020470000202020202020202020202020A8
:1041300020202020000000000000000000000000FF
:10414000010203040607080900000000010203043D
:1041500002030405060708090A0B0C0D0E0F1010C8
:044160000102000058
:04416400310100081D
:044168000D0100083D
:10416C00010000000100000001000000010000003F
:10417C00010000000100000001000000010000002F
:10418C00010000000100000001000000010000001F
:10419C00640000006400000064000000000801409E
:1041AC0000080140001001400001000280000105E0
:1041BC0002030502030502030502030101000000CE
:1041CC0000127A00100000000100000070000020B6
:1041DC0000000000000000000000000000000000D3
:1041EC0000000000000000000000000000000000C3
:1041FC0000000000000000000000000000000000B3
:10420C0000000000000000000000000000000000A2
:10421C000000000000000000000000000000000092
:10422C000000000000000000000000000000000082
:0400000508001EA130
:00000001FF
