:020000040800F2
:1000000000280020AD1200083D120008431200082D
:10001000491200084F1200085512000800000000A5
:100020000000000000000000000000005B1200085B
:100030006712000800000000731200087F12000819
:10004000F5120008F5120008F5120008F512000874
:10005000F5120008F5120008F5120008F512000864
:10006000F5120008F5120008F5120008F512000854
:10007000F5120008F5120008F5120008F512000844
:10008000F5120008F5120008F5120008F512000834
:10009000F5120008F5120008F5120008F512000824
:1000A000F5120008F5120008F5120008F512000814
:1000B0008D120008F512000800000000F51200087B
:1000C000F51200080000000000000000F512000812
:1000D00000000000F5120008F51200080000000002
:1000E000F5120008F5120008F512000800000000E3
:1000F0000000000000000000000000000000000000
:0C01000000000000000000005FF808F1A3
:10010C0010B5054C237833B9044B13B10448AFF345
:10011C0000800123237010BD20000020000000008F
:10012C002429000808B5034B1BB103490348AFF35E
:10013C00008008BD000000002400002024290008D5
:10014C0080B485B000AFF8600B467A607B81FB68A9
:10015C007A891A80FB687A685A60FB6800221A72E6
:10016C00FB6800221A82FB6800225A82FB6800227C
:10017C009A73FB680022DA73FB6800221A73FB681F
:10018C0000225A7300BF1437BD4680BC704780B53F
:10019C0082B000AF78607B689A7A7B68DA727B6891
:1001AC005A7A7B689A727B685A687B681B881946F6
:1001BC00104601F085FB03461A467B685A727B6831
:1001CC00DA7A7B685B7A9A4210D17B681A7A7B6800
:1001DC005B7A9A420AD07B685B7A002B02D17B68EF
:1001EC000122DA737B685A7A7B681A727B681B7AF5
:1001FC00002B11D17B681B8A632B06D87B681B8A6A
:10020C0001339AB27B681A820CE07B6801221A7364
:10021C007B6800221A8205E07B6800221A827B68C8
:10022C0000221A7300BF0837BD4680BD80B483B06E
:10023C0000AF78607B68DB7B002B04D07B680022EE
:10024C00DA73012300E0002318460C37BD4680BC4E
:10025C00704780B483B000AF78607B681B7B012B48
:10026C0004D17B6800221A73012300E00023184696
:10027C000C37BD4680BC704780B483B000AF78604B
:10028C0039607B68144A82FB03129210DB17D31A75
:10029C00124A1360114B1B686FF0090202FB03F248
:1002AC007B6813440D4A53603B680B4A82FB031274
:1002BC009210DB17D31A094A9360084B9B686FF0B6
:1002CC00090202FB03F23B681344044AD36000BFEB
:1002DC000C37BD4680BC70476766666650000020D0
:1002EC0080B582B000AF0346FB71FB79012B08D0BF
:1002FC00FB79042B05D000222021454801F0F7FAA8
:10030C0004E001222021424801F0F1FAFB79052B8F
:10031C0008D0FB79062B05D0002240213C4801F087
:10032C00E6FA04E001224021394801F0E0FAFB79B9
:10033C00022B05D000228021354801F0D8FA04E0C8
:10034C0001228021324801F0D2FAFB79012B0CD02A
:10035C00FB79042B09D0FB79072B06D000224FF434
:10036C0080712B4801F0C3FA05E001224FF4807133
:10037C00274801F0BCFAFB79002B08D0FB79022B43
:10038C0005D0FB79062B02D0FB79082B06D1002275
:10039C004FF400711E4801F0AAFA05E001224FF457
:1003AC0000711B4801F0A3FAFB79012B0FD0FB79EC
:1003BC00022B0CD0FB79032B09D0FB79072B06D031
:1003CC0000224FF48061124801F091FA05E00122FD
:1003DC004FF480610E4801F08AFAFB79002B0CD0A7
:1003EC00FB79012B09D0FB79072B06D000224FF4A7
:1003FC000061074801F07BFA06E001224FF400612E
:10040C00034801F074FA00BF00BF0837BD4680BD39
:10041C00000C014080B582B000AF78607B68032B84
:10042C005AD801A252F823F0450400087D040008B4
:10043C009F040008C10400082A4B1B68DBB2184655
:10044C00FFF74EFF00222021274801F050FA01222D
:10045C004021254801F04BFA01228021224801F06D
:10046C0046FA01224FF480711F4801F040FA34E043
:10047C001C4B5B68DBB21846FFF732FF01222021D0
:10048C00194801F034FA00224021174801F02FFAE4
:10049C0023E0144B9B68DBB21846FFF721FF0122C7
:1004AC004021114801F023FA002280210E4801F06E
:1004BC001EFA12E00B4BDB68DBB21846FFF710FF9D
:1004CC0001228021084801F012FA00224FF48071B9
:1004DC00054801F00CFA00E000BF00BF0837BD462C
:1004EC0080BD00BF500000200008014080B582B0E4
:1004FC0000AF7860396039687868FFF7BDFE094B4A
:10050C001B68032B02DD074B00221A60054B1B688E
:10051C005A1C04490A601846FFF77CFF00BF0837D5
:10052C00BD4680BD3C00002080B485B000AFF860B3
:10053C00084611461A4603467B810B463B811346FF
:10054C00FB80FB687A891A80FB683A895A80FB68C1
:10055C00FA889A80FB68BA699A60FB68FA69DA6073
:10056C00FB683A6A1A6100BF1437BD4680BC7047FD
:10057C0080B582B000AF78600B46FB70FB78002B27
:10058C0018D17B6898687B681B880022194601F09B
:10059C00AEF97B68D8687B685B880122194601F04C
:1005AC00A6F97B6818697B689B880122194601F0C3
:1005BC009EF933E0FB78022B18D17B6898687B6836
:1005CC001B880122194601F092F97B68D8687B6878
:1005DC005B880022194601F08AF97B6818697B68F0
:1005EC009B880122194601F082F917E07B68986814
:1005FC007B681B880122194601F079F97B68D86861
:10060C007B685B880122194601F071F97B681869D7
:10061C007B689B880022194601F069F900BF0837F6
:10062C00BD4680BD80B582B000AF78600B46FB70D4
:10063C00FB78002B18D17B689A687B681B8819465D
:10064C00104601F06CF97B68D8687B685B880122E6
:10065C00194601F04CF97B6818697B689B8801226C
:10066C00194601F044F933E0FB78022B18D17B6872
:10067C0098687B681B880122194601F038F97B6861
:10068C00DA687B685B881946104601F048F97B688C
:10069C0018697B689B880122194601F028F917E03C
:1006AC007B6898687B681B880122194601F01FF94A
:1006BC007B68D8687B685B880122194601F017F9C2
:1006CC007B681A697B689B881946104601F027F9EC
:1006DC0000BF0837BD4680BD80B582B000AF7860E2
:1006EC0039608A4B1B78012B40F0F9804FF47A71FA
:1006FC00002000F091FB864B1B78022B50D0022B74
:10070C0073DC002B02D0012B25D06EE00021786821
:10071C00FFF72EFF7F4B1B78002B13D17E4B1A78E3
:10072C007C4B1A7001217868FFF722FF7B4B1B78FA
:10073C005A1ED1B2794A1170794A1370744B012246
:10074C001A7052E0734B1B785A1ED1B2714A117059
:10075C00734A137049E001217868FFF709FF6F4B6A
:10076C001B78002B13D16F4B1A786C4B1A7002212B
:10077C007868FFF7FDFE6C4B1B785A1ED1B26A4AA3
:10078C001170674A1370624B02221A702DE0634B92
:10079C001B785A1ED1B2614A1170614A137024E061
:1007AC0002217868FFF7E4FE5F4B1B78002B13D116
:1007BC005E4B1A785C4B1A7000217868FFF7D8FEF4
:1007CC00544B1B785A1ED1B2524A1170544A1370B2
:1007DC004F4B00221A7008E0534B1B785A1ED1B2B3
:1007EC00514A11704E4A137000BF514B1B78022BAB
:1007FC0050D0022B74DC002B02D0012B25D06FE0E3
:10080C0000213868FFF7B4FE4A4B1B78002B13D13C
:10081C00414B1A78474B1A7001213868FFF7A8FE34
:10082C00454B1B785A1ED1B2434A1170434A137080
:10083C003F4B01221A7053E03E4B1B785A1ED1B22B
:10084C003C4A11703D4A13704AE001213868FFF7A9
:10085C008FFE394B1B78002B13D1324B1A78364B49
:10086C001A7002213868FFF783FE354B1B785A1E2D
:10087C00D1B2334A1170314A13702D4B02221A70C7
:10088C002EE02D4B1B785A1ED1B22B4A11702B4ADD
:10089C00137025E002213868FFF76AFE284B1B789D
:1008AC00002B13D1214B1A78254B1A700021386874
:1008BC00FFF75EFE1F4B1B785A1ED1B21D4A1170FA
:1008CC001E4A13701A4B00221A7009E01C4B1B783D
:1008DC005A1ED1B21A4A1170184A137000E000BFA8
:1008EC000A4B9B78012B0CD1FA21022000F094FAD0
:1008FC000B4B1B781A46114B1B7819461046FFF709
:10090C00F5FD00BF0837BD4680BD00BF600000206C
:10091C0041000020070000200400002009000020F6
:10092C0042000020060000200800002005000020E6
:10093C00000000200A0000200C00002043000020D2
:10094C000B00002080B586B000AFF860B9607A600B
:10095C00874B1B78032B00F2388201A252F823F04C
:10096C007D090008B9090008E50A0008390C0008DF
:10097C00F868FFF75BFC0346002B12D07D4B01227D
:10098C005A707B4B01221A707B4B00221A60784BF9
:10099C001B781A46794B1B7819461046FFF76CFCEE
:1009AC0013E27968B868FFF797FE0EE2F868FFF774
:1009BC003DFC0346002B1FD0714B1A786F4B1B78F4
:1009CC009A4203D06E4B1A786C4B1A70694B012209
:1009DC005A70684B01229A70674B00221A60644B64
:1009EC0002221A70624B1B781A46664B1B7819460A
:1009FC001046FFF741FCE8E1FB6814331846FFF79B
:100A0C0028FC0346002B19D05C4B1B780133DAB25F
:100A1C005A4B1A70594B1B78632B02D9574B012236
:100A2C001A70534B1B781A46544B1B7819461046B8
:100A3C00FFF722FC504B00221A6020E0FB681433B5
:100A4C001846FFF7F3FB0346002B18D04B4B1B78D3
:100A5C000133DAB2494B1A70484B1B78632B02D91D
:100A6C00464B01221A70424B1B781A46434B1B789B
:100A7C0019461046FFF700FC3F4B00221A60FB683A
:100A8C0028331846FFF7D2FB0346002B03D03B4B11
:100A9C001A783B4B1A70374B5B78012B40F09081E6
:100AAC00FA21012000F0B8F9334B1B68032B02DD4F
:100ABC00314B00221A60304B1B685A1C2E490A60BD
:100ACC001846FFF7A7FC0021B868FFF7ABFD002123
:100ADC007868FFF7A7FD73E1F868FFF7A7FB0346FB
:100AEC00002B23D0FA21012000F096F9264B1A781E
:100AFC00244B1B789A4203D0234B1A78214B1A7043
:100B0C001C4B01225A701B4B01229A701A4B00226B
:100B1C001A60174B03221A70154B1B781A461B4B85
:100B2C001B7819461046FFF7A7FB4EE1FB68143300
:100B3C001846FFF78EFB0346002B29D0114B1B7870
:100B4C000133DAB20F4B1A700E4B1B78632B02D9A0
:100B5C000C4B01221A70064B1B781A46094B1B785A
:100B6C0019461046FFF788FB034B00221A6030E051
:100B7C0040000020600000203C000020010000200C
:100B8C0004000020020000200500002003000020CB
:100B9C00FB6814331846FFF749FB0346002B18D0AB
:100BAC008C4B1B780133DAB28A4B1A70894B1B7849
:100BBC00632B02D9874B01221A70874B1B781A467C
:100BCC00844B1B7819461046FFF756FB834B0022CB
:100BDC001A60FB6828331846FFF728FB0346002BE6
:100BEC0003D07C4B1A787E4B1A707E4B5B78012BB2
:100BFC0040F0E880FA21012000F00EF90221B868DB
:100C0C00FFF710FD02217868FFF70CFD734B1B6892
:100C1C00032B02DD714B00221A60704B1B685A1CAF
:100C2C006E490A601846FFF7F5FBCBE0F868FFF752
:100C3C00FDFA0346002B54D06A4B01221A70694B03
:100C4C0001225A70674B01229A70644B00221A6081
:100C5C00654B1A78654B1B789A4203D0624B1A7815
:100C6C00624B1A70604B1A785D4B1B781344FB7502
:100C7C005F4B1B78FA7D9A4211D05E4B05221A709D
:100C8C00544B03221A70594B02221A70584B0522EE
:100C9C001A70534B03221A70534B02221A70544B86
:100CAC001A78554B1A704E4B1A78544B1A704E4B8F
:100CBC001A78534B1A704E4B1A78524B1A70484B89
:100CCC001A78514B1A70484B1A78504B1A70504B7B
:100CDC0000221A704F4B01221A703F4B00221A70DF
:100CEC0073E0FB6814331846FFF7B3FA0346002B86
:100CFC0019D03E4B1B780133DAB23C4B1A703B4B8C
:100D0C001B78632B02D9394B01221A70324B1B789A
:100D1C001A46364B1B7819461046FFF7ADFA2F4B87
:100D2C0000221A6020E0FB6814331846FFF77EFAA5
:100D3C000346002B18D02D4B1B780133DAB22B4B0A
:100D4C001A702A4B1B78632B02D9284B01221A707C
:100D5C00214B1B781A46254B1B7819461046FFF77A
:100D6C008BFA1E4B00221A60FB6828331846FFF7DB
:100D7C005DFA0346002B03D01C4B1A781A4B1A70E1
:100D8C00184B5B78012B1FD1FA21012000F044F89D
:100D9C000121B868FFF746FC01217868FFF742FC97
:100DAC000E4B1B68032B02DD0C4B00221A600B4B05
:100DBC001B685A1C09490A601846FFF72BFB03E015
:100DCC0000BF02E000BF00E000BF00BF1837BD4607
:100DDC0080BD00BF02000020400000203C0000202D
:100DEC000500002060000020060000200300002009
:100DFC000400002001000020070000200800002053
:100E0C00090000200A0000200B0000200C0000202C
:100E1C00410000200000002080B483B000AF786057
:100E2C003960094B1B683A6892FBF3F207497B68FF
:100E3C0041F82320064A7B68134400221A7000BF35
:100E4C000C37BD4680BC70471000002044000020C9
:100E5C006000002080B483B000AF00237B601CE0F6
:100E6C00124A7B6852F82330002B13DD0F4A7B6843
:100E7C0052F823305A1E0D497B6841F823200B4A47
:100E8C007B6852F82330002B04D1094A7B68134449
:100E9C0001221A707B6801337B607B68022BDFDDDB
:100EAC0000BF00BF0C37BD4680BC7047440000201B
:100EBC006000002080B584B004AF00F017FA00F099
:100ECC0053F8214B0293204B01931F4B009310239B
:100EDC00082204211D48FFF727FB1D4B02931C4BD6
:100EEC0001931B4B00934FF480434FF400524FF48B
:100EFC0080511848FFF718FB154A01211648FFF7D7
:100F0C001FF9134A02211548FFF71AF9104A042158
:100F1C001348FFF715F900F0AFF800F061F811482D
:100F2C0001F042F90A210020FFF776FF0A21012087
:100F3C00FFF772FF0A210220FFF76EFF054A0349F3
:100F4C000548FFF7FFFCF9E7000801407800002096
:100F5C00000C014064000020D4000020E8000020B8
:100F6C00FC0000208C00002080B590B000AF07F191
:100F7C00180328220021184601F0C6FC3B1D002254
:100F8C001A605A609A60DA601A610223BB6101230D
:100F9C00BB621023FB6200237B6307F11803184626
:100FAC0000F0D6FC0346002B01D000F0E5F80F232F
:100FBC007B600023BB600023FB6000233B610023AC
:100FCC007B613B1D0021184600F042FF0346002BBD
:100FDC0001D000F0D1F800BF4037BD4680BD000005
:100FEC0080B586B000AF07F1080300221A605A6082
:100FFC009A60DA603B4600221A605A601D4B4FF033
:10100C0080421A601B4B41F63F725A60194B00220A
:10101C009A60184B0922DA60164B00221A61154BA4
:10102C0000229A61134801F06FF80346002B01D09F
:10103C0000F0A2F84FF48053BB6007F10803194687
:10104C000C4801F0EDF90346002B01D000F094F8A8
:10105C0000233B6000237B603B461946054801F0AA
:10106C00C5FB0346002B01D000F086F800BF1837F3
:10107C00BD4680BD8C00002080B586B000AF07F166
:10108C00080300221A605A609A60DA60284B9B6948
:10109C00274A43F004039361254B9B6903F0040337
:1010AC007B607B68224B9B69214A43F00803936168
:1010BC001F4B9B6903F008033B603B6800224FF415
:1010CC00FE711C4800F013FC002247F6E0711A4830
:1010DC0000F00DFC4FF4FE73BB600123FB6000239A
:1010EC003B6102237B6107F108031946114800F0AC
:1010FC006DFA0723BB600023FB6001233B6107F102
:10110C00080319460C4800F061FA47F6E073BB601F
:10111C000123FB6000233B6102237B6107F1080381
:10112C001946054800F052FA00BF1837BD4680BD7D
:10113C000010024000080140000C014080B582B054
:10114C0000AF78607B681B68B3F1804F0AD1FFF762
:10115C0081FE0648FFF71BF80548FFF718F805480D
:10116C00FFF715F800BF0837BD4680BDD40000203E
:10117C00E8000020FC00002080B400AF72B600BF75
:10118C00FEE7000080B485B000AF154B9B69144A94
:10119C0043F001039361124B9B6903F00103BB60A5
:1011AC00BB680F4BDB690E4A43F08053D3610C4B89
:1011BC00DB6903F080537B607B680A4B5B68FB60E8
:1011CC00FB6823F0E063FB60FB6843F00073FB609B
:1011DC00044AFB68536000BF1437BD4680BC70479F
:1011EC00001002400000014080B584B000AF786070
:1011FC007B681B68B3F1804F13D10C4BDB690B4A36
:10120C0043F00103D361094BDB6903F00103FB607D
:10121C00FB68002200211C2000F0A1F91C2000F02A
:10122C00BAF900BF1037BD4680BD00BF00100240A8
:10123C0080B400AFFEE780B400AFFEE780B400AF2F
:10124C00FEE780B400AFFEE780B400AFFEE780B4E9
:10125C0000AF00BFBD4680BC704780B400AF00BF7C
:10126C00BD4680BC704780B400AF00BFBD4680BC9B
:10127C00704780B500AF00F07FF800BF80BD000064
:10128C0080B500AF024800F0DBFF00BF80BD00BF9F
:10129C008C00002080B400AF00BFBD4680BC7047FE
:1012AC00FFF7F8FF0B480C490C4A002302E0D45816
:1012BC00C4500433C4188C42F9D3094A094C002396
:1012CC0001E013600432A242FBD301F0F9FAFFF7FC
:1012DC00F1FD704700000020200000206829000864
:1012EC002000002014010020FEE7000080B500AFB4
:1012FC00084B1B68074A43F010031360032000F0EF
:10130C0023F90F2000F008F8FFF73CFF00231846E4
:10131C0080BD00BF0020024080B582B000AF786075
:10132C00124B1A68124B1B7819464FF47A73B3FBA5
:10133C00F1F3B2FBF3F3184600F03BF90346002B34
:10134C0001D001230EE07B680F2B0AD800227968AC
:10135C004FF0FF3000F003F9064A7B68136000235E
:10136C0000E0012318460837BD4680BD140000205C
:10137C001C0000201800002080B400AF054B1B7827
:10138C001A46054B1B681344034A136000BFBD4645
:10139C0080BC70471C0000201001002080B400AFFE
:1013AC00024B1B681846BD4680BC704710010020DC
:1013BC0080B485B000AF78607B6803F00703FB60F6
:1013CC000C4BDB68BB60BA684FF6FF031340BB6085
:1013DC00FB681A02BB68134343F0BF6343F400334A
:1013EC00BB60044ABB68D36000BF1437BD4680BCE9
:1013FC00704700BF00ED00E080B400AF044BDB6829
:10140C001B0A03F007031846BD4680BC704700BF9B
:10141C0000ED00E080B483B000AF0346FB7197F998
:10142C000730002B0BDBFB7903F01F02064997F901
:10143C0007305B09012000FA02F241F8232000BFBB
:10144C000C37BD4680BC704700E100E080B483B02F
:10145C0000AF03463960FB7197F90730002B0ADBAC
:10146C003B68DAB20C4997F907301201D2B20B443F
:10147C0083F800230AE03B68DAB20849FB7903F0F1
:10148C000F03043B1201D2B20B441A7600BF0C3787
:10149C00BD4680BC704700BF00E100E000ED00E0FD
:1014AC0080B489B000AFF860B9607A60FB6803F073
:1014BC000703FB61FB69C3F10703042B28BF04235B
:1014CC00BB61FB690433062B02D9FB69033B00E0CB
:1014DC0000237B614FF0FF32BB6902FA03F3DA435E
:1014EC00BB681A407B699A404FF0FF317B6901FA67
:1014FC0003F3D9437B680B40134318462437BD468E
:10150C0080BC704780B582B000AF78607B68013BCF
:10151C00B3F1807F01D301230FE00A4A7B68013BC2
:10152C0053600F214FF0FF30FFF790FF054B002267
:10153C009A60044B07221A60002318460837BD46F0
:10154C0080BD00BF10E000E080B582B000AF7860D5
:10155C007868FFF72DFF00BF0837BD4680BD80B50A
:10156C0086B000AF0346B9607A60FB7300237B61E1
:10157C00FFF742FF78617A68B9687869FFF790FFE6
:10158C00024697F90F3011461846FFF75FFF00BF70
:10159C001837BD4680BD80B582B000AF0346FB71E5
:1015AC0097F907301846FFF735FF00BF0837BD46DF
:1015BC0080BD80B582B000AF78607868FFF7A2FF7D
:1015CC00034618460837BD4680BD000080B48BB07A
:1015DC0000AF7860396000237B6200233B6248E1F6
:1015EC0001227B6A02FA03F3FB613B681B68FA6910
:1015FC001340BB61BA69FB699A4240F037813B6882
:10160C005B68A34A93425ED0A14A934275D8A14A23
:10161C00934258D09F4A93426FD89F4A934252D0DC
:10162C009D4A934269D89D4A93424CD09B4A93421F
:10163C0063D89B4A934246D0994A93425DD8122B69
:10164C002AD8122B59D801A252F823F0D31600082D
:10165C00AD160008BF160008011700080717000890
:10166C0007170008071700080717000807170008D6
:10167C0007170008071700080717000807170008C6
:10168C0007170008071700080717000807170008B6
:10169C00B5160008C9160008824A934213D02CE0F4
:1016AC003B68DB683B6229E03B68DB6804333B62E8
:1016BC0024E03B68DB6808333B621FE03B68DB6877
:1016CC000C333B621AE03B689B68002B02D104236D
:1016DC003B6213E03B689B68012B05D108233B62FE
:1016EC007B68FA691A6109E008233B627B68FA6936
:1016FC005A6103E000233B6200E000BFBB69FF2B93
:10170C0001D87B6801E07B6804337B61BB69FF2BEC
:10171C0002D87B6A9B0002E07B6A083B9B003B6122
:10172C007B691A680F213B6901FA03F3DB431A400A
:10173C00396A3B6901FA03F31A437B691A603B6807
:10174C005B6803F08053002B00F09080564B9B6934
:10175C00554A43F001039361534B9B6903F001031A
:10176C00BB60BB68514A7B6A9B08023352F823303A
:10177C00FB607B6A03F003039B000F2202FA03F366
:10178C00DB43FA681340FB607B68494A93420DD0F7
:10179C007B68484A934207D07B68474A934201D101
:1017AC00022304E0032302E0012300E000237A6A11
:1017BC0002F0030292009340FA681343FB603B492A
:1017CC007B6A9B080233FA6841F823203B685B680C
:1017DC0003F48013002B06D0384B9A683749BB6949
:1017EC0013438B6006E0354B9A68BB69DB43334986
:1017FC0013408B603B685B6803F40013002B06D02E
:10180C002E4BDA682D49BB691343CB6006E02B4B9A
:10181C00DA68BB69DB4329491340CB603B685B68E2
:10182C0003F40033002B06D0244B5A682349BB69C0
:10183C0013434B6006E0214B5A68BB69DB431F49DD
:10184C0013404B603B685B6803F48033002B06D07D
:10185C001A4B1A681949BB6913430B6006E0174B06
:10186C001A68BB69DB43154913400B607B6A013373
:10187C007B623B681A687B6A22FA03F3002B7FF4C5
:10188C00AFAE00BF00BF2C37BD4680BC704700BF59
:10189C000000321000003110000022100000211056
:1018AC000000121000001110001002400000014056
:1018BC0000080140000C01400010014000040140F0
:1018CC0080B485B000AF78600B467B807B689A68EB
:1018DC007B881340002B02D00123FB7301E0002313
:1018EC00FB73FB7B18461437BD4680BC704780B435
:1018FC0083B000AF78600B467B8013467B707B789F
:10190C00002B03D07A887B681A6103E07B881A0469
:10191C007B681A6100BF0C37BD4680BC704780B431
:10192C0085B000AF78600B467B807B68DB68FB6022
:10193C007A88FB6813401A04FB68D9437B880B40F8
:10194C001A437B681A6100BF1437BD4680BC7047D0
:10195C0080B586B000AF78607B68002B01D1012385
:10196C006CE27B681B6803F00103002B00F087809E
:10197C00924B5B6803F00C03042B0CD08F4B5B6811
:10198C0003F00C03082B12D18C4B5B6803F48033EF
:10199C00B3F5803F0BD1894B1B6803F40033002B4C
:1019AC006CD07B685B68002B68D1012346E27B68B6
:1019BC005B68B3F5803F06D1804B1B687F4A43F4CC
:1019CC00803313602EE07B685B68002B0CD17B4B63
:1019DC001B687A4A23F480331360784B1B68774A70
:1019EC0023F4802313601DE07B685B68B3F5A02FA4
:1019FC000CD1724B1B68714A43F4802313606F4BFC
:101A0C001B686E4A43F4803313600BE06B4B1B680E
:101A1C006A4A23F480331360684B1B68674A23F4CB
:101A2C00802313607B685B68002B13D0FFF7B6FC38
:101A3C00386108E0FFF7B2FC02463B69D31A642B0D
:101A4C0001D90323FAE15D4B1B6803F40033002B2F
:101A5C00F0D014E0FFF7A2FC386108E0FFF79EFC21
:101A6C0002463B69D31A642B01D90323E6E1534B9D
:101A7C001B6803F40033002BF0D100E000BF7B683F
:101A8C001B6803F00203002B63D04C4B5B6803F024
:101A9C000C03002B0BD0494B5B6803F00C03082B99
:101AAC001CD1464B5B6803F48033002B16D1434B9F
:101ABC001B6803F00203002B05D07B681B69012B0C
:101ACC0001D00123BAE13D4B1B6823F0F8027B687F
:101ADC005B69DB00394913430B603AE07B681B6997
:101AEC00002B20D0364B01221A60FFF757FC3861CF
:101AFC0008E0FFF753FC02463B69D31A022B01D9CD
:101B0C0003239BE12D4B1B6803F00203002BF0D049
:101B1C002A4B1B6823F0F8027B685B69DB002749C2
:101B2C0013430B6015E0264B00221A60FFF736FCBE
:101B3C00386108E0FFF732FC02463B69D31A022BEE
:101B4C0001D903237AE11D4B1B6803F00203002B20
:101B5C00F0D17B681B6803F00803002B3AD07B683C
:101B6C009B69002B19D0174B01221A60FFF716FC4A
:101B7C00386108E0FFF712FC02463B69D31A022BCE
:101B8C0001D903235AE10D4B5B6A03F00203002BCE
:101B9C00F0D0012000F09AFA1CE00A4B00221A60E7
:101BAC00FFF7FCFB38610FE0FFF7F8FB02463B69DF
:101BBC00D31A022B08D9032340E100BF00100240C6
:101BCC0000004242800442429E4B5B6A03F00203D7
:101BDC00002BE9D17B681B6803F00403002B00F099
:101BEC00A6800023FB75974BDB6903F08053002B19
:101BFC000DD1944BDB69934A43F08053D361914BE5
:101C0C00DB6903F08053BB60BB680123FB758E4B13
:101C1C001B6803F48073002B18D18B4B1B688A4A0A
:101C2C0043F480731360FFF7B9FB386108E0FFF7EA
:101C3C00B5FB02463B69D31A642B01D90323FDE0A3
:101C4C00814B1B6803F48073002BF0D07B68DB683E
:101C5C00012B06D17B4B1B6A7A4A43F001031362BA
:101C6C002DE07B68DB68002B0CD1764B1B6A754A28
:101C7C0023F001031362734B1B6A724A23F00403B3
:101C8C0013621CE07B68DB68052B0CD16D4B1B6A67
:101C9C006C4A43F0040313626A4B1B6A694A43F0B3
:101CAC00010313620BE0674B1B6A664A23F00103C6
:101CBC001362644B1B6A634A23F0040313627B6850
:101CCC00DB68002B15D0FFF769FB38610AE0FFF7E2
:101CDC0065FB02463B69D31A41F28832934201D923
:101CEC000323ABE0574B1B6A03F00203002BEED02F
:101CFC0014E0FFF753FB38610AE0FFF74FFB024695
:101D0C003B69D31A41F28832934201D9032395E0FF
:101D1C004C4B1B6A03F00203002BEED1FB7D012B15
:101D2C0005D1484BDB69474A23F08053D3617B686C
:101D3C00DB69002B00F08180424B5B6803F00C03E5
:101D4C00082B61D07B68DB69022B46D13F4B00220C
:101D5C001A60FFF723FB386108E0FFF71FFB024610
:101D6C003B69D31A022B01D9032367E0354B1B685F
:101D7C0003F00073002BF0D17B681B6AB3F5803F36
:101D8C0008D1304B5B6823F400327B689B682D498B
:101D9C0013434B602B4B5B6823F474127B68196AFA
:101DAC007B685B6A0B43274913434B60274B01222B
:101DBC001A60FFF7F3FA386108E0FFF7EFFA024612
:101DCC003B69D31A022B01D9032337E01D4B1B6847
:101DDC0003F00073002BF0D02FE01C4B00221A6094
:101DEC00FFF7DCFA386108E0FFF7D8FA02463B69E6
:101DFC00D31A022B01D9032320E0124B1B6803F0EA
:101E0C000073002BF0D118E07B68DB69012B01D14A
:101E1C00012313E00B4B5B68FB60FB6803F480321F
:101E2C007B681B6A9A4206D1FB6803F470127B68CC
:101E3C005B6A9A4201D0012300E000231846183750
:101E4C00BD4680BD00100240007000406000424260
:101E5C0080B584B000AF786039607B68002B01D10D
:101E6C000123D0E06A4B1B6803F007033A689A42DF
:101E7C0010D9674B1B6823F0070265493B68134375
:101E8C000B60634B1B6803F007033A689A4201D05E
:101E9C000123B8E07B681B6803F00203002B20D001
:101EAC007B681B6803F00403002B05D0594B5B685F
:101EBC00584A43F4E06353607B681B6803F00803E3
:101ECC00002B05D0534B5B68524A43F4605353606C
:101EDC00504B5B6823F0F0027B689B684D491343C1
:101EEC004B607B681B6803F00103002B40D07B68C0
:101EFC005B68012B07D1474B1B6803F40033002BA5
:101F0C0015D101237FE07B685B68022B07D1414B25
:101F1C001B6803F00073002B09D1012373E03D4BC8
:101F2C001B6803F00203002B01D101236BE0394B3A
:101F3C005B6823F003027B685B68364913434B6094
:101F4C00FFF72CFAF8600AE0FFF728FA0246FB6864
:101F5C00D31A41F28832934201D9032353E02D4B1B
:101F6C005B6803F00C027B685B689B009A42EBD1C8
:101F7C00274B1B6803F007033A689A4210D2244B94
:101F8C001B6823F0070222493B6813430B60204B6C
:101F9C001B6803F007033A689A4201D0012332E030
:101FAC007B681B6803F00403002B08D0194B5B689B
:101FBC0023F4E0627B68DB68164913434B607B6853
:101FCC001B6803F00803002B09D0124B5B6823F449
:101FDC0060527B681B69DB000E4913434B6000F0B9
:101FEC0021F802460B4B5B681B0903F00F030A49EF
:101FFC00CB5C22FA03F3094A1360094B1B681846A1
:10200C00FFF78AF9002318461037BD4680BD00BF84
:10201C0000200240001002403C290008140000205F
:10202C001800002080B487B000AF0023FB600023B1
:10203C00BB6000237B6100237B6000233B611E4B54
:10204C005B68FB60FB6803F00C03042B02D0082BCD
:10205C0003D027E0194B3B6127E0FB689B0C03F096
:10206C000F03174AD35C7B60FB6803F48033002BAF
:10207C0010D0114B5B685B0C03F00103114AD35C6D
:10208C00BB607B680D4A02FB03F2BB68B2FBF3F347
:10209C007B6104E07B680C4A02FB03F37B617B6988
:1020AC003B6102E0054B3B6100BF3B6918461C37A6
:1020BC00BD4680BC704700BF0010024000127A0081
:1020CC004C2900085C29000800093D0080B485B04B
:1020DC0000AF78600A4B1B680A4AA2FB03235B0A19
:1020EC007A6802FB03F3FB6000BFFB685A1EFA60C0
:1020FC00002BF9D100BF00BF1437BD4680BC704720
:10210C0014000020D34D621080B582B000AF78600F
:10211C007B68002B01D1012341E07B6893F83D30B3
:10212C00DBB2002B06D17B68002283F83C20786858
:10213C00FFF75AF87B68022283F83D207B681A6807
:10214C007B6804331946104600F056FA7B6801226E
:10215C0083F846207B68012283F83E207B680122AD
:10216C0083F83F207B68012283F840207B680122A2
:10217C0083F841207B68012283F842207B6801228E
:10218C0083F843207B68012283F844207B6801227A
:10219C0083F845207B68012283F83D2000231846F4
:1021AC000837BD4680BD000080B485B000AF7860B4
:1021BC007B6893F83D30DBB2012B01D0012335E075
:1021CC007B68022283F83D207B681B68DA687B6899
:1021DC001B6842F00102DA607B681B68164A934266
:1021EC0009D07B681B68B3F1804F04D07B681B68F7
:1021FC00124A934211D17B681B689B6803F007035A
:10220C00FB60FB68062B10D07B681B681A687B6828
:10221C001B6842F001021A6007E07B681B681A68B1
:10222C007B681B6842F001021A60002318461437C1
:10223C00BD4680BC704700BF002C0140000400402C
:10224C0080B584B000AF78607B681B68DB68FB608E
:10225C007B681B681B69BB60BB6803F00203002B27
:10226C0020D0FB6803F00203002B1BD07B681B689B
:10227C006FF002021A617B6801221A777B681B6877
:10228C009B6903F00303002B03D0786800F098F9E6
:10229C0005E0786800F08BF9786800F09AF97B68B3
:1022AC0000221A77BB6803F00403002B20D0FB68D4
:1022BC0003F00403002B1BD07B681B686FF0040237
:1022CC001A617B6802221A777B681B689B6903F48E
:1022DC004073002B03D0786800F072F905E0786841
:1022EC0000F065F9786800F074F97B6800221A77C1
:1022FC00BB6803F00803002B20D0FB6803F0080335
:10230C00002B1BD07B681B686FF008021A617B687E
:10231C0004221A777B681B68DB6903F00303002B2C
:10232C0003D0786800F04CF905E0786800F03FF9CC
:10233C00786800F04EF97B6800221A77BB6803F0CE
:10234C001003002B20D0FB6803F01003002B1BD0D4
:10235C007B681B686FF010021A617B6808221A7781
:10236C007B681B68DB6903F44073002B03D078682F
:10237C0000F026F905E0786800F019F9786800F0AB
:10238C0028F97B6800221A77BB6803F00103002B45
:10239C000CD0FB6803F00103002B07D07B681B6893
:1023AC006FF001021A617868FEF7C8FEBB6803F093
:1023BC008003002B0CD0FB6803F08003002B07D0AC
:1023CC007B681B686FF080021A61786800F06FFA06
:1023DC00BB6803F04003002B0CD0FB6803F04003F8
:1023EC00002B07D07B681B686FF040021A6178687D
:1023FC0000F0F8F8BB6803F02003002B0CD0FB684E
:10240C0003F02003002B07D07B681B686FF02002C1
:10241C001A61786800F042FA00BF1037BD4680BDE3
:10242C0080B584B000AF786039600023FB737B68A3
:10243C0093F83C30012B01D10223B4E07B680122DC
:10244C0083F83C207B68022283F83D207B681B6864
:10245C009B68BB60BB6823F07703BB60BB6823F44D
:10246C007F43BB607B681B68BA689A603B681B68DB
:10247C00B3F5005F3ED0B3F5005F00F28780B3F593
:10248C00805F00F08680B3F5805F7FD8702B1AD008
:10249C00702B7BD8602B50D0602B77D8502B3CD036
:1024AC00502B73D8402B58D0402B6FD8302B64D086
:1024BC00302B6BD8202B60D0202B67D8002B5CD016
:1024CC00102B5AD062E07B6818683B6899683B68AF
:1024DC005A683B68DB6800F06AF97B681B689B688C
:1024EC00BB60BB6843F07703BB607B681B68BA6852
:1024FC009A604FE07B6818683B6899683B685A683B
:10250C003B68DB6800F053F97B681B689A687B6852
:10251C001B6842F480429A603CE07B6818683B6818
:10252C0059683B68DB681A4600F0CAF87B681B6880
:10253C005021184600F021F92CE07B6818683B68A4
:10254C0059683B68DB681A4600F0E8F87B681B6842
:10255C006021184600F011F91CE07B6818683B6894
:10256C0059683B68DB681A4600F0AAF87B681B6860
:10257C004021184600F001F90CE07B681A683B68B2
:10258C001B681946104600F0F8F803E00123FB73B2
:10259C0000E000BF7B68012283F83D207B680022AD
:1025AC0083F83C20FB7B18461037BD4680BD80B4B9
:1025BC0083B000AF786000BF0C37BD4680BC70475D
:1025CC0080B483B000AF786000BF0C37BD4680BCD0
:1025DC00704780B483B000AF786000BF0C37BD4645
:1025EC0080BC704780B483B000AF786000BF0C37FC
:1025FC00BD4680BC7047000080B485B000AF7860E9
:10260C0039607B681B68FB607B682B4A934207D060
:10261C007B68B3F1804F03D07B68284A934208D182
:10262C00FB6823F07003FB603B685B68FA6813433C
:10263C00FB607B68204A934207D07B68B3F1804FE4
:10264C0003D07B681D4A934208D1FB6823F4407386
:10265C00FB603B68DB68FA681343FB60FB6823F0A4
:10266C0080023B685B691343FB607B68FA681A6005
:10267C003B689A687B68DA623B681A687B689A6286
:10268C007B680D4A934203D13B681A697B681A63D5
:10269C007B6801225A617B681B6903F00103002BE4
:1026AC0005D07B681B6923F001027B681A6100BFAF
:1026BC001437BD4680BC7047002C0140000400401C
:1026CC0080B487B000AFF860B9607A60FB681B6AB1
:1026DC007B61FB681B6A23F00102FB681A62FB68D2
:1026EC009B693B613B6923F0F0033B617B681B01F9
:1026FC003A6913433B617B6923F00A037B617A6976
:10270C00BB6813437B61FB683A699A61FB687A6921
:10271C001A6200BF1C37BD4680BC704780B487B0BE
:10272C0000AFF860B9607A60FB681B6A7B61FB687C
:10273C001B6A23F01002FB681A62FB689B693B6101
:10274C003B6923F470433B617B681B033A69134379
:10275C003B617B6923F0A0037B61BB681B017A6939
:10276C0013437B61FB683A699A61FB687A691A6268
:10277C0000BF1C37BD4680BC704780B485B000AF2D
:10278C00786039607B689B68FB60FB6823F07003A2
:10279C00FB603A68FB68134343F00703FB607B68FC
:1027AC00FA689A6000BF1437BD4680BC704780B48D
:1027BC0087B000AFF860B9607A603B60FB689B68DB
:1027CC007B617B6923F47F437B613B681A027B68E6
:1027DC001A43BB6813437A6913437B61FB687A69BC
:1027EC009A6000BF1C37BD4680BC704780B485B072
:1027FC0000AF786039607B6893F83C30012B01D1D5
:10280C00022341E07B68012283F83C207B68022292
:10281C0083F83D207B681B685B68FB607B681B68EA
:10282C009B68BB60FB6823F07003FB603B681B6814
:10283C00FA681343FB607B681B68FA685A607B6814
:10284C001B68144A934209D07B681B68B3F1804F14
:10285C0004D07B681B68104A93420CD1BB6823F0F0
:10286C008003BB603B685B68BA681343BB607B68E2
:10287C001B68BA689A607B68012283F83D207B68EC
:10288C00002283F83C20002318461437BD4680BC38
:10289C00704700BF002C01400004004080B483B09E
:1028AC0000AF786000BF0C37BD4680BC704780B469
:1028BC0083B000AF786000BF0C37BD4680BC70475A
:1028CC0070B500260C4D0D4C641BA410A64209D10A
:1028DC0000F022F800260A4D0A4C641BA410A642F4
:1028EC0005D170BD55F8043B98470136EEE755F815
:1028FC00043B98470136F2E760290008602900087C
:10290C00602900086429000803460244934200D160
:10291C00704703F8011BF9E7F8B500BFF8BC08BC19
:10292C009E467047F8B500BFF8BC08BC9E46704781
:10293C000000000000000000010203040607080963
:10294C0002030405060708090A0B0C0D0E0F1010E4
:04295C000102000074
:042960003101000839
:042964000D01000859
:102968000105030205030205030205030200000036
:102978000A00000000127A001000000001000000A8
:04000005080012AD30
:00000001FF
